:1000000000000420750300005D0300005F03000092
:1000100061030000630300006503000000000000AE
:100020000000000000000000000000006703000066
:1000300069030000000000006B0300006D03000076
:100040006F0300006F0300006F0300006F030000E8
:100050006F0300006F0300006F0300006F030000D8
:100060006F0300006F0300006F0300006F030000C8
:100070006F0300006F0300006F0300006F030000B8
:100080006F0300006F0300006F0300006F030000A8
:100090006F0300006F0300006F0300006F03000098
:1000A0006F0300006F0300006F0300006F03000088
:1000B0006F0300006F03000000000000000000005C
:1000C0006F0300006F0300006F0300006F03000068
:1000D0006F0300006F0300006F0300006F03000058
:1000E0006F0300006F0300006F03000000000000BA
:1000F000000000006F030000000000006F0300001C
:1001000000000000000000000000000000000000EF
:1001100000000000000000000000000000000000DF
:1001200000000000000000000000000000000000CF
:1001300000000000000000000000000000000000BF
:1001400000000000000000000000000000000000AF
:10015000000000000000000000000000000000009F
:10016000000000000000000000000000000000008F
:10017000000000000000000000000000000000007F
:10018000000000000000000000000000000000006F
:10019000000000000000000000000000000000005F
:1001A000000000000000000000000000000000004F
:1001B000000000000000000000000000000000003F
:1001C000000000000000000000000000000000002F
:1001D000000000000000000000000000000000001F
:1001E000000000000000000000000000000000000F
:1001F00000000000000000000000000000000000FF
:10020000354936480A1A02D0072291438D463449AF
:1002100034480A1A06D00722914381F30988022242
:1002200082F3148830483149314A00F044F83148AB
:100230003149324A00F03FF831483249324A00F041
:100240003AF832483249334A00F035F832483349F7
:10025000334A00F030F833483349344A00F02BF881
:1002600033483449344A00F026F8344834490022EF
:1002700000F02CF833483449002200F027F83348C6
:100280003349091A082902DB002202604160314A21
:1002900090471F481F49884205D00268043003B4C4
:1002A000904703BCF7E700208646EC46002000217B
:1002B000294A9047FEE7884207D0521A05D00378B2
:1002C00001300B700131013AF9D17047884202D0F8
:1002D00002700130FAE770470000042000E00320BC
:1002E0000000042000000420AC06000000000020F4
:1002F00004000020D4030000D40300009406000092
:10030000AC06000000000020000000209406000061
:100310009406000094060000940600009406000075
:10032000940600009406000094060000AA0600004F
:10033000B00600000400002004000020040000209B
:10034000040000200400002004000020040000201D
:10035000042000209D030000D5030000FEE7FEE717
:10036000FEE7FEE7FEE7FEE7FEE7FEE7FEE7FEE765
:10037000704700BF1048804710484FF0070188437E
:1003800085460F4880470F48016841F470010160BD
:10039000BFF34F8FBFF36F8FFFF732BF0A480B4990
:1003A0000B4A884207D0521A05D0037801300B70EF
:1003B0000131013AF9D170477103000000000420B7
:1003C000D904000088ED00E0940600000000002041
:0403D0000000002009
:1003D40070B50120094D00F051F845F001050024E5
:1003E400204600F031F84FF4FA764FF47A40A847EB
:1003F400013EFAD10134042CF2D1F0E7A00600004A
:10040400074B1B5C1F2B86BF064903F01F034FF0ED
:10041400A041012202FA03F3C1F80835704700BF76
:10042400A60600000003005008B50020FFF7E8FF0F
:100434000120FFF7E5FF0220FFF7E2FFBDE80840D7
:100444000320FFF7DDBF00000A4B185C1F288ABF9A
:10045400094B4FF0A04300F01F00D3F804250121FD
:10046400814021EA02000A40C3F80805C3F80C25BC
:10047400704700BFA606000000030050C20710B575
:1004840004460CD54FF0A0430322C3F83427C3F825
:100494003827C3F83C27C3F84027FFF7C5FFA30755
:1004A4000AD54FF0A0430C22C3F82C27C3F83027F9
:1004B400C3F86027C3F8642710BD4FF08053D3F806
:1004C4003021082A03BFD3F83401B0FA80F0400980
:1004D4000020704708B54FF080430022C3F80C2178
:1004E400C3F81021C3F838254FF0805203F5404378
:1004F400D2F80414C3F82015D2F80814C3F824154C
:10050400D2F80C14C3F82815D2F81014C3F82C151B
:10051400D2F81414C3F83015D2F81814C3F83415EB
:10052400D2F81C14C3F84015D2F82014C3F84415AB
:10053400D2F82414C3F84815D2F82814C3F84C157B
:10054400D2F82C14C3F85015D2F83014C3F854154B
:10055400D2F83414C3F86015D2F83814C3F864150B
:10056400D2F83C14C3F86815D2F84014C3F86C15DB
:10057400D2F84424C3F87025FFF79FFF18B13B4B12
:100584003B4AC3F88C26FFF798FF18B1394BFB227E
:10059400C3F81825FFF791FF70B14FF080414FF079
:1005A4008053D1F8E42ED3F8583222F00F0203F02E
:1005B4000F031343C1F8E43EFFF77FFF20B12E4B36
:1005C4004FF40072C3F840264FF08043D3F8002460
:1005D400D20744BF6FF00102C3F80024274AD2F8BF
:1005E400883043F47003C2F88830BFF34F8FBFF3F1
:1005F4006F8F4FF01023D3F80022002A03DBD3F8C7
:100604000432002B2EDA1E4B0122C3F80425D3F842
:100614000024002AFBD04FF010221221C2F800124D
:10062400D3F80024002AFBD04FF010231222C3F881
:100634000422134BD3F80024002AFBD00022C3F871
:100644000425D3F80024002AFBD0BFF34F8F0B49B5
:100654000C4BCA6802F4E0621343CB60BFF34F8FC4
:1006640000BFFDE7084B094A1A6008BD005000406E
:100674004881030000F000400090024000ED00E0DB
:1006840000E001400400FA05000000200090D003BF
:100694000000000000000000000000000338FDD846
:0606A40070470D0E0F105F
:0406AC000090D003E7
:040000030000037581
:00000001FF
