:020000022000DC
:1060000000000420756302005D6302005F6302000C
:106010006163020063630200656302000000000028
:1060200000000000000000000000000067630200A4
:1060300069630200000000006B6302006D630200F0
:10604000518502006F630200218A02006F63020023
:106050006F6302006F630200718802006F630200C9
:106060006F6302006F6302006F6302006F630200E0
:106070006F6302006F6302006F6302006F630200D0
:106080006F630200ED7002006F6302006F63020035
:10609000897102006F63020049B702006F6302005A
:1060A0006F6302006F6302006F6302006F630200A0
:1060B0006F6302006F630200000000000000000038
:1060C0006F6302006F6302006F6302006F63020080
:1060D0006F6302006F6302006F6302006F63020070
:1060E0006F6302006F6302006F6302000000000034
:1060F000000000006F630200000000006F630200F8
:10610000000000000000000000000000000000008F
:10611000000000000000000000000000000000007F
:10612000000000000000000000000000000000006F
:10613000000000000000000000000000000000005F
:10614000000000000000000000000000000000004F
:10615000000000000000000000000000000000003F
:10616000000000000000000000000000000000002F
:10617000000000000000000000000000000000001F
:10618000000000000000000000000000000000000F
:1061900000000000000000000000000000000000FF
:1061A00000000000000000000000000000000000EF
:1061B00000000000000000000000000000000000DF
:1061C00000000000000000000000000000000000CF
:1061D00000000000000000000000000000000000BF
:1061E00000000000000000000000000000000000AF
:1061F000000000000000000000000000000000009F
:10620000354936480A1A02D0072291438D4634494F
:1062100034480A1A06D00722914381F309880222E2
:1062200082F3148830483149314A00F044F831484B
:106230003149324A00F03FF831483249324A00F0E1
:106240003AF832483249334A00F035F83248334997
:10625000334A00F030F833483349344A00F02BF821
:1062600033483449344A00F026F83448344900228F
:1062700000F02CF833483449002200F027F8334866
:106280003349091A082902DB002202604160314AC1
:1062900090471F481F49884205D00268043003B464
:1062A000904703BCF7E700208646EC46002000211B
:1062B000294A9047FEE7884207D0521A05D0037852
:1062C00001300B700131013AF9D17047884202D098
:1062D00002700130FAE770470000042000E003205C
:1062E000000004200000042068D30200982A002047
:1062F000F82A0020D4630200D46302002CC40200F8
:1063000068D30200982A0020982A002020C50200A5
:1063100020C5020020C5020020C5020020C50200E1
:1063200020C5020020C5020020C5020067D302007C
:10633000C8D30200F82A0020F82A0020F82A0020FA
:10634000C43C0020C43C0020C43C0020C43C0020CD
:10635000C45C00209D630200999C0200FEE7FEE7FA
:10636000FEE7FEE7FEE7FEE7FEE7FEE7FEE7FEE705
:10637000704700BF1048804710484FF0070188431E
:1063800085460F4880470F48016841F4700101605D
:10639000BFF34F8FBFF36F8FFFF732BF0A480B4930
:1063A0000B4A884207D0521A05D0037801300B708F
:1063B0000131013AF9D170477163020000000420F5
:1063C000AD7F020088ED00E020C50200982A002081
:0463D000982A0020E7
:1063D4007047000007B5044B0093044A402300F0C3
:1063E40032F803B05DF804FBF5630200F92A0020DB
:1063F4002DE9F84388461446B2B10F4B0F4E0325DE
:10640400002743F00109224608EB0701002003F0AE
:1064140081FE0744241A48B933782BB14FF47A40EB
:10642400C847013D02D13570BDE8F88301233370BC
:10643400002CE8D1F8E700BF20C50200F82A0020AC
:10644400704703F097BEF0B595B01D461646084652
:106454000C4601F0E7FC1A9B0D93CDE90865002575
:106464002B46082205A920460A958DF82C500C9538
:1064740001F0F4FC079B0293069B03939DF81430F0
:106484008DF8115003F00302012A1DD1BDF8142028
:10649400059DC3F3C203C2F383168DF81030B20016
:1064A40008230EA9204601F0D9FCC5F3952508ABB5
:1064B4000093324602AB0EA9284600F05BFB20464F
:1064C40001F0B4FC15B0F0BD022AF8D1BDF81650A5
:1064D400C3F3C203C5F389158DF810300827082DBE
:1064E4002E4628BF08263B4632460EA9204601F018
:1064F400B5FCAD1B08AB02AA31460EA8374400F028
:106504009DFB002DEBD1DAE708B5FFF79AFF0448AD
:10651400042100F099FA034B01225A7108BD00BF0F
:1065240010C50200982A0020037813F0040216D044
:1065340003F00303012B03D0022B09D00120704781
:106544000A6800880232C0F3831002440A60F5E747
:106554000B684288023303EB92130B60EEE710469C
:10656400704700002DE9F04FDFF830A187B00F46E7
:1065740000230446861C0DF1070015468DF80730EC
:1065840001F002F9DAF800103960DAE90132134453
:1065940001335B1A0AF21C470AF583690AF21448AC
:1065A400B3421CD30020002D73D004F00F039B01D1
:1065B40043F0050363F30F00DAF80020DAF808303B
:1065C4001340033332444AF823009DF80700CAF805
:1065D400002001F0FDF8012007B0BDE8F08F012193
:1065E400384601F056F9484601F06BF9404601F08F
:1065F40068F9DAF80400DAF808B0029000EA0B004F
:1066040003300AEB800002A9FFF78EFF029B50BB08
:106614000BEA03020AEB820203F1020CD268039232
:10662400013303EA0B0B0AEB8B0B02F00302012A82
:10663400DBF80C10CDF808C023D0022A16D083460C
:10664400404601F041F910B1029BCAF804305946A2
:10665400384601F01EF9DAE901231344DAF8002080
:1066640001339B1A9CE70BEA0300C9E7BDF80E301F
:10667400C3F3891303334FEA114B0CEB93030293D7
:10668400DEE7BDF80C30C3F383134FEA114B6344C8
:10669400F5E7A40544F006008EE700BF0C2C0020AB
:1066A4000B4B0C48FF2210B59A600022C3F8182443
:1066B400C3E90022C3F8142483F8202401F06BFBFF
:1066C400044610B9044801F013FC204610BD00BF75
:1066D4000C2C002094C402005CC5020030B50A4CA6
:1066E40071B10A4A0A49121BD20800239A4201D105
:1066F400002030BD31F82350854202D00133F5E744
:10670400034654F83300F4E7A8C4020010C502009D
:10671400982A0020094B013903EBC000032909D84A
:10672400DFE801F00A02040604207047007970478C
:10673400407970470020704702207047A8C40200C7
:10674400034BD3E90030C31A58425841704700BF85
:106754000C2C00202DE9F04387B0FFF7F1FF06462B
:10676400002840F0FE80804CC4F81804BFF34F8F1B
:106774006368A56802932B40033304EB830002A9EA
:10678400FFF7D2FE029B18B1D4F81824002A62D075
:1067940005EA0302991C013304EB82022B4004EB4B
:1067A4008303D268DB68049302F00303022B039291
:1067B400029163D1BDF80E306C48C3F38917502F92
:1067C400B84628BF4FF0500808F1080168F38F134A
:1067D400C1F30901ADF80E3001F0F5FA06460028C0
:1067E40000F0AA8001F01EFB0023082203A9304612
:1067F40001F02AFB029925EA01020132B8EB820F6B
:106804004FEA820333D95FFA88F863B32940DDB2D3
:10681400A8EB050803315FFA88F9A846544D04EB48
:10682400810108234246304601F00EFB3DB108F1D8
:106834000803DBB24A462946304601F005FB029BB9
:10684400033703EB97070297D4F81834002B4BD186
:10685400D4F810545BE022689A428CD862603046C7
:1068640007B0BDE8F08342491D469946D9E729405F
:1068740003310823424604EB8101DDE7012B5BD1A0
:10688400BDF80C303948C3F38311062928BF06210B
:1068940061F38913023101F00F018900ADF80C3066
:1068A40001F091FA0646002846D001F0BBFA002315
:1068B400082203A9304601F0C7FA0027BDF80C20CE
:1068C400C2F38312BB00974203F10803BCD20299BE
:1068D4004A1C29400331029204EB81010422304610
:1068E40001F0B2FA0137E9E7304601F09FFAFFF709
:1068F40027FF80F00100C6B2B1E7EB685B7923B1F2
:106904002B6831461B6828469847EB681D68002DA4
:10691400F3D1304601F08AFA0DF107008DF80750E3
:1069240000F032FFD4F818340BB9029B63609DF871
:10693400070000F04DFFDAE7D4F8104454B90D4BCA
:106944000D480E49C01AC008000440F0020000F0CF
:1069540063F8CCE7236820469B689847E3681C6883
:10696400ECE700267BE700BF0C2C002094C4020057
:10697400182C0020A8C40200D0C4020044C50200A0
:106984002DE9F74F224E04460F46924601A90122F3
:106994001846D6F808909B46FFF7E4FD20B3019D06
:1069A4004FF00008AA1CD84508EB020126D119486B
:1069B400002100F03FFF80F31000000440EA14407F
:1069C400E4006B1C04F0380403EA090305EA090532
:1069D40044F0010406EB8303033544EA881444EAD3
:1069E4008724D86046F8254096F820341BB1FFF779
:1069F400B1FE0028FBD103B0BDE8F08F09EA010124
:106A040006EB81015AF82830CB6008F10108CAE787
:106A14000C2C00202830002000231A46FFF7B0BFBA
:106A240007B50123019201AAFFF7AAFF03B05DF89D
:106A340004FB07B5CDE9002302236A46FFF7A0FF54
:106A440003B05DF804FB000030B50F4CD4F81024FB
:106A540003460020114631B9D96808714AB9C4F80F
:106A640010340A6030BDC9680D79854206D00968C2
:106A7400F1E7D26814680C601360F3E701300A2868
:106A8400E8D14FF0FF30EDE70C2C002038B5084B6F
:106A94000125D3F8104483F8205404B938BDE368C1
:106AA4005D71236820465B689847E3681C68F4E7D7
:106AB4000C2C002030B5C38885B004460D4633B194
:106AC400144A00921449154A284600F060FF217ABE
:106AD40005291DD0637A4BB1A088FFF71BFE104B2C
:106AE400104953F82020284600F051FF227A0E4B1B
:106AF400A08853F8222003920021FFF7EFFD039AA8
:106B04000A490346284605B0BDE8304000F03FBFBF
:106B140005B030BD88C5020070C5020068C502001A
:106B2400F4C502008DC5020018C6020090C502001B
:106B340007B503460846197A052911D05B7A2BB1AB
:106B4400094A0A49019000F022FF0198084901907E
:106B540000F01DFF019803B05DF804EB00F00CBFDA
:106B6400002AF8D0F2E700BF88C502008DC50200F4
:106B740065CC02002DE9F04385B01F460C9D00232F
:106B840095F80C902B7306460C46904629463846D9
:106B9400FFF790FFB8F1060F09D8DFE808F00412F8
:106BA400181F283340003146284600F0F0FE00222A
:106BB40029463846FFF7BCFF85F80C9005B0BDE8C0
:106BC400F08322683146284600F0E1FEEFE7D4E97D
:106BD40000233146284600F0DAFEE8E7A368009374
:106BE4003146D4E90023284600F0D1FEDFE7E3680C
:106BF4000193A36800933146D4E90023284600F0AA
:106C0400C6FED4E723690293E3680193A368009363
:106C14003146D4E90023284600F0B9FEC7E763698A
:106C2400039323690293E3680193A36800933146B5
:106C3400D4E90023284600F0AAFEB8E708292DE984
:106C4400F74F80460E4617461C4639D8002593F860
:106C54000C901D7319461046FFF72CFFDFF880A037
:106C6400DFF880B0AE422ED918F8052059462046E8
:106C740000F08DFE0135082DF4D11849DFF868A025
:106C8400DFF868B0204600F082FE0025AE421FD92E
:106C940018F805200192104604F0C2FF0028019A5A
:106CA400594608BF2E22204600F071FE0135082DFA
:106CB400ECD1012221463846FFF73AFF84F80C90C4
:106CC40003B0BDE8F08F5146204600F060FED1E7E6
:106CD4005146204600F05BFEE8E700BFA4C5020071
:106CE400A0C502009AC50200A2C50200A6C5020002
:106CF4002DE9F84F2F4F304E4FF000082F4B1B78E3
:106D04005FFA88F5AB4201D8BDE8F88FD7F8009058
:106D140019F835000124A0F12002C0F1200304FA7F
:106D240002F224FA03F31343D6E9001204FA00FC36
:106D340001EA0C0B02EA030E5BEA0E0E09EBC50A2C
:106D440035D021EA0C0122EA0303C6E9001301F05D
:106D54007FFD024619F83500194DA0F12003C0F15A
:106D6400200124FA01F104FA03F30B43D5E900C12D
:106D7400C0F120050B40A0F1200122FA05F5844062
:106D840002FA01F1294304EA0C0402FA00F58B42E9
:106D940008BFAC420BD1DAF8043043B19AF80110C1
:106DA4004C1E614261418D1A69426941984708F15C
:106DB4000108A3E700310020F8300020C83000208B
:106DC400F0300020F8B507461E4800F0C1FBB8BB00
:106DD40001251D4EA7F12004C7F1200325FA03F372
:106DE40005FA04F41C43D6E90023BD4002EA050079
:106DF40003EA040101431DD1384601F029FD134B78
:106E0400D3E9001288B129432243C3E90012D6E929
:106E140000232A432343C6E900230D4B094819687C
:106E24000022BDE8F84000F04BBB21EA050122EA4C
:106E34000402EAE722EA050223EA0403C6E900237E
:106E4400F8BD00BFD0300020F8300020F030002022
:106E5400CC300020042A2DE9F34105460C461646A1
:106E64003BD901F01DFCE8B11D4B1E491D601E4BB2
:106E7400DFF888801C701D4B00221E600023C1E9CE
:106E840000231B49C1E90023013CE4B20026032787
:106E9400FF2C0ED1174A1848002102B0BDE8F0417A
:106EA40000F0FCBA01F0C2FB0028DDD002B0BDE85E
:106EB400F08105EBC40315F834009B788DF8066067
:106EC400424601A98DF804708DF8053001F0F2FBFB
:106ED400013CE4B20028DBD0E8E70720E6E700BF86
:106EE40000310020F0300020C8300020CC300020D9
:106EF400F8300020F56C02002CC60200C96D0200B7
:106F040070B5084D084E00242B789C4201D3002014
:106F140070BD3368012113F8340001F04BFC0134D7
:106F2400F2E700BFC8300020003100201FB5002167
:106F3400039001AA44F20100CDE9011100F004F824
:106F440005B05DF804FB000038B572B6FFF79EFD8E
:106F5400FFF700FC0028FBD1104B114C114D1249D6
:106F6400E41AE408240444F00100FFF755FDD5F8C1
:106F7400F030DB0700D500BE0C4944F00200FFF7F7
:106F84004BFDBFF34F8FEA68094B02F4E0621343F1
:106F9400EB60BFF34F8F00BFFDE700BFA8C4020042
:106FA400D0C4020000ED00E030C602003CC602007E
:106FB4000400FA0549B152B1531E1A4007D1826048
:106FC40001608380C260104670470E20704709201C
:106FD400704710B58468C2688388121B934208D333
:106FE400C26813400268D154C3680133C3600020EF
:106FF40010BD0420FCE78268C3689A420AD0826804
:10700400838813400268D35C0B7083680133836008
:107014000020704705207047094B5A78997801324F
:10702400D2B2914208BF0022197891421FBF027068
:107034005878182202FB003014BF04300020704737
:107044000431002073B5054600240DF107000E46F7
:107054008DF8074000F098FB0DF10600FFF7DCFF08
:1070640090B10670094B9DF8062045605A709DF852
:10707400070000F0ADFB24B9054B4FF48012C3F8B0
:107084000021204602B070BD0424F0E70431002042
:1070940000E100E0024B4FF43C6043F00103184769
:1070A40050C6020038B50C4B0C4C4FF40032C3F8F8
:1070B400802001254FF48033C4F84833C4F80833E2
:1070C4006560FFF7E7FF064BA56000241C60FFF72F
:1070D400E1FF044B1C7038BD00E100E000100140EA
:1070E4002032002011320020F8B51F4B1F491B68C5
:1070F4000025C1F84051C1F84451C1F84851C1F8C4
:107104004C51C1F80051C1F804514BB3D1F80445B6
:1071140017490968641A24F07F442F461A68A2426A
:1071240009D8A41A15441A7CDE691AB1D3E90520DA
:107134001F749047AEB90F4A0F4B11781B788B42DE
:1071440005D10133DBB2022B08BF00231370127880
:107154000A4B43F822500A4B4FF48012C3F8002123
:10716400F8BD3346DAE700BF2432002000100140A6
:10717400203200201D3200201C3200201432002056
:1071840000E100E02DE9F04FA14AA2491378097803
:10719400A14D994285B03CD00133DBB2022B08BF2C
:1071A400002313709D4912789D4B0F6853F82200F9
:1071B4003B1823F07F4300220B602B6816461446CD
:1071C400944613B942B12B6006E0196881420ED986
:1071D40002B12B60091A196001272B68DFF848A255
:1071E40001934FF00008BEB9DFF844B260E0401AE2
:1071F4000C44D968D3F81CE0C3F800C031B13A1983
:1072040022F07F42C3E90121DE611E46734601225A
:10721400D7E700263746E0E73446F6697F4B6068D7
:107224001B68DFF810C2A168C21A22F07F426245CF
:1072340000F2A6800A442260012222742A680023F4
:10724400C4E90133E361002A40F0A3802C60CAE75B
:107254009BF802105A1CD2B291428BF8002004BF52
:1072640000228BF80020182202FB03B32A68197944
:107274009C68022975D003297FD0012918D1207C6C
:10728400B0B9D3E90312A2605A69E2609A69654B06
:10729400A2611A78002A18BF01466160BEE78C42D9
:1072A40000F094808946C9690029F8D10023237429
:1072B4009BF800309BF801209A42C9D12B68B8F1A1
:1072C400000F04D1019A9A4201D1002F43D0002B20
:1072D40079D0D3F800A0544D504BD5F804751C68F0
:1072E400DFF854813E1B98F8003026F07F460336C1
:1072F4009BB94FF48033C5F84433C5F804334B4B82
:107304004FF400324FF00109C3F880211A60C5F828
:107314000090FFF7BFFE88F80090B2452CBF54449C
:10732400A41924F07F44C5F84045D5F80435DB1B87
:1073340023F07F43E41B033324F07F44A3420AD9A0
:10734400D5F80435C5F84035FFF7A4FE374B4FF4A4
:107354000032C3F80021334B00221A7005B0BDE897
:10736400F08F114691469FE71174D2690123002AD8
:10737400FAD1002B9CD02A609AE700231946F6E73D
:107384001B1A23F07F438B4234BFCB1A00232360A4
:1073940052E721681368994213D85B1A1360E261BB
:1073A40054E7091AD8691A4638B10346186888425E
:1073B400F7D3401A1860184613462160E061DC6177
:1073C40011E71346F2E7FFF76DFEC4E74C4511D110
:1073D400D3692B6073B9DFF844E00120CDE90212D0
:1073E400CAF80800CEF800300E4B1870FFF752FEB2
:1073F400DDE902120B68C969C9F81C1011B10868EB
:1074040003440B602B68934218BF4FF001084DE70B
:107414001C3200201D3200202432002020320020A3
:1074240014320020103200200010014000E100E07E
:1074340004310020FEFF7F001132002008B5FFF761
:1074440031FE104B00200B2218809A700E4B1860EE
:107454000E4B18700E4B18700E4B4FF48012C02157
:10746400C3F8802183F814131A6002F18042A2F554
:107474006F22C2F8080583F81113074BD2F80425CC
:107484001A6008BD04310020243200201C32002080
:107494001D32002000E100E020320020074B9B78E1
:1074A4004BB132B128B10368187C20B959745A61C0
:1074B4007047072070470820704700BF0431002040
:1074C4002DE9F743DFF8848098F8023005460E462C
:1074D4001746ABB3A0B3042930D9436983B3437CC3
:1074E4000024012B0DF107000CBF8946A1468DF83D
:1074F400074000F049F90DF10600FFF78DFDD8B102
:10750400012303700F4B4560D3F80435C0E9049799
:10751400C0E902369DF8063088F801309DF807006E
:1075240000F056F924B9084B4FF48012C3F8002137
:10753400204603B0BDE8F0830424EFE70724F7E70F
:107544000824F5E70010014000E100E004310020C8
:10755400064A92783AB130B1426922B100220274EB
:107564000221FFF76FBD0820704700BF04310020DF
:107574000648074A03780749D35C012213B1043053
:1075840001F0D4BE0C3001F093BC00BFA02A00204F
:1075940094320020503200200648074A03780749F5
:1075A400D35C012213B1043001F078BE0C3001F039
:1075B40031BC00BFA02A00209432002051320020A8
:1075C40037B50578012D0DD0022D2ED005BB1E49EF
:1075D4001E48FFF710FD002832D103B0BDE830404B
:1075E400FFF7DABF43681A4C19782046FFF7F1FC1D
:1075F40080B18DF800500190164B68461B6898477F
:10760400A168E368A2885B1A9A420AD3FFF7B0FF25
:1076140003B030BDA268E3689A42F1D08DF800004F
:10762400EAE70D4B01221A70F2E7C3688DF80050A7
:107634000193FFF79DFF074B68461B689847E7E7F0
:1076440003238DF80030F6E7513200204032002049
:107654002C320020283200203C320020F0B51F4696
:10766400234B89B004461A600D4600293DD08A8810
:1076740020480968FFF79EFC002834D1AA89A9682C
:107684001D48FFF797FC00282DD11C4E0FCE6D46E8
:107694000FC596E80F0085E80F0063690693237C05
:1076A400174A18488DF81C70003B18BF01238DF849
:1076B4001430637C002B14BF0E2300238DF8153087
:1076C400E3680293A368039323680193694663689C
:1076D400009300F0C9FE30B90B4B187023680133D6
:1076E40001D0FFF745FF09B0F0BD0720FBE700BF5D
:1076F400283200202C3200204032002058C60200DC
:10770400C5750200A02A00203C32002070B5084D47
:10771400014608482E78FFF76EFC044636B1002374
:107724002B70FFF725FF08B1FFF700FC204670BD62
:107734003C3200202C32002010B501460E48FFF7E1
:1077440048FC0446A8B90D480D4A0378D35C63B1DC
:10775400043001F097FD60B90A490748FFF74BFC74
:1077640038B9BDE81040FFF717BF0C3001F046FBF5
:10777400F1E7204610BD00BF40320020A02A0020BF
:10778400943200205132002070B5EFF3108672B6A7
:107794000C4A946801239CB993600B4B0B4DD3F8AE
:1077A400801029401160C3F88050D3F884105160D0
:1077B4004FF0FF32C3F88420047006B962B670BD7E
:1077C4000370FAE75432002000E100E0FC06FFBD3C
:1077D400084B9A6810B55AB150B9EFF3108172B6DC
:1077E400054A1C6814605C685460986001B962B60C
:1077F40010BD00BF5432002000E100E001F01F0280
:107804004B090121914000EB830000F01EB801F008
:107814001F0301229A404B0900EB8300D14300F07F
:107824002CB84B0901F01F0150F82300C84000F0A8
:107834000100704710B5034653E8000F0A4643E8B9
:10784400002494F0000FF7D110BD10B5034653E89F
:10785400002F42EA010043E8000494F0000FF6D13F
:1078640010BD10B5034653E8000F00EA010243E8D7
:10787400002494F0000FF6D110BD10B5034653E870
:10788400002F02EA010043E8000494F0000FF6D14F
:1078940010BD10B5034653E8002F02EB010043E886
:1078A400000494F0000FF6D110BD10B5034653E860
:1078B400002FA2EB010043E8000494F0000FF6D17E
:1078C40010BD0121FFF7C1BF0021FFF7CABF10B5EA
:1078D40090B1D0E9012301689B1ADBB20A60013B35
:1078E400DBB2FF2B026802D10020107110BD1168B9
:1078F4004C1C14600B70F2E70E20F7E737B5054611
:1079040000240DF107008DF80740FFF73DFF2A68BA
:107914006B68116899420ED9481E106011F8013C39
:10792400EC68298A01FB0344AB6811791B1ADBB2AA
:10793400994238BF13719DF80700FFF749FF2046AD
:1079440003B030BD37B5054600230DF107000C46E2
:107954008DF80730FFF718FF2A681368591C116067
:10796400E968641A298AB4FBF1F41C709DF80700D5
:10797400FFF72EFF03B030BD826810B504462AB16C
:1079840043690168006998470023A36010BD0EB4E1
:1079940003B5039921B104AB01AA019300F06EF879
:1079A40002B05DF804EB03B07047826830B4046839
:1079B400551C8560A154D0E901329A4202D330BCEF
:1079C400FFF7DABF30BC70472DE9F84F9846DDE980
:1079D4000A43154682460F460A464FF00109AA4259
:1079E4000FD2C14538BFC14613F0010B01D16CB9A8
:1079F40000240126B8F1010F1BD908F1FF386E43AA
:107A0400F8E709F10109B2FBF5F2E8E79B070ED5A7
:107A1400B8F1000F0CBF30262026A145E9D2013C65
:107A240031465046FFF7C1FF002CF6D1E0E720268F
:107A3400F3E7B7FBF6F39D42E1D9DFF83C80B7FBEF
:107A4400F6F3504618F8031006FB1377FFF7ADFF63
:107A54003346AB42B6FBF5F6F1D2BBF1000F02D0D0
:107A64000CB1A14501D3BDE8F88F20215046013C5B
:107A7400FFF79BFFF4E700BF78C602002DE9F74F3C
:107A8400054617468846002900F03E8118F8011B78
:107A940049B92B7B002B00F03781284603B0BDE8A1
:107AA400F04FFFF769BF252940F0B780002698F80A
:107AB40000302D2B424608F1010823D0302B24D06E
:107AC4002B2B25D000242A2B02F1010123D13B6862
:107AD4001A1D1B683A601C440A4613782E2B26D1C3
:107AE40001324FF0000A104610F8011BA1F1300CCE
:107AF400BCF1090F1DD80A2303FB0A13A3F1300AB2
:107B04000246F0E746F00106D1E746F00206CEE76A
:107B140046F00406CBE711F8013CA3F13000092834
:107B2400DBD80A2202FB0434303C0A46CBE74FF090
:107B3400000A12F8011B01F0FB0068289046F8D0F7
:107B4400782909D86F290CD8632962D022D825292D
:107B540063D0582900F0888098F80030002B95D124
:107B640097E770390829F7D801A353F821F000BF2B
:107B7400E77C02005D7B02005D7B02007D7C0200ED
:107B84005D7B02005B7C02005D7B02005D7B02008A
:107B94006D7C0200642901D06929DDD13A68D2F8EC
:107BA4000090111D89EAE9723960A2EBE9724FF085
:107BB400010B092A35DCD34538BFD3462CB1B9F1C2
:107BC400000F01DB720700D5013CB30702D5BAF1FF
:107BD400000F03D0F00701D44CBB0024B9F1000F0F
:107BE4002DDAC9F100092D212846FFF7DEFE06F043
:107BF4000302022A04D1BAF1000F01D11CBB0024F4
:107C0400CDE9004653460A2249462846FFF7DCFEE2
:107C1400A2E73B681A1D19783A602846FFF7C5FEAB
:107C24009AE70A230BF1010BB2FBF3F2C1E7A34578
:107C3400D4D220212846013CFFF7B7FECCE77107D8
:107C4400D5D52B21D0E7A345DAD230212846013CF3
:107C5400FFF7ABFED2E73968CDE900460A1D3A606A
:107C640053460A220968D0E739680A1D3A60CDE90B
:107C7400004653461022F5E73B681A1D3A6016F099
:107C84000106D3F8009024D1B9F1000F03D048467F
:107C940004F07BF80646B4421DD809F1FF3919F8FF
:107CA400011F00293FF458AF2846FFF77EFEF6E790
:107CB40028460136FFF779FE19F806100029F7D196
:107CC400A642BFF449AF20212846013CFFF76DFED0
:107CD400F6E70026F0E720212846013CFFF765FE81
:107CE400D9E73B681A1D3A60302128461C68FFF723
:107CF4005CFE78212846FFF758FE00220823CDE9D0
:107D040000322146102280E703B0BDE8F08F00BFA7
:107D14002DE9F84FB0F806A04579D2F800B09DF8E7
:107D240028900AFB05F5043D88460BEB0301A942A4
:107D340003F1040488BFA5EB030BB4FBFAF6074672
:107D44000AFB1644C2F800B04EB9AAEB04055D451F
:107D540028BF5D46BBF1000F04D1BDE8F88F3F6832
:107D6400013EF1E7043408EB06003C442A46B9F12D
:107D7400000F0DD02146ABEB050B03F088FFDA456D
:107D84002E443F6855464FF0000428BF5D46E1E7A6
:107D940001462046EFE7FFF79ABDF8B5467901465C
:107DA400721E0546002393422D6803D30024A64285
:107DB40002D8F8BD0133F6E70F682846FFF7C2FD85
:107DC40001343946F3E72DE9F843068ACD1C07460A
:107DD400FFF794FD043E35440446B5FBF6F5F0B1D7
:107DE4004FF48073EDB28380C680013D0760814605
:107DF4004FF00008A84512D23846FFF77FFD06462B
:107E040048B163790133637108F10108C9F80000CE
:107E140007608146EEE72046FFF7BFFF3446204661
:107E2400BDE8F88301210430FFF733BD10B501210B
:107E340004460430FFF739FDC0B220B92046BDE83E
:107E44001040FFF7AABF10BD1FB503920022009295
:107E540003AAFFF75DFF05B05DF804FB1FB50392AD
:107E64000122009203AAFFF753FF05B05DF804FB5B
:107E740041DF7047064B10B500241C70054B1C6095
:107E8400BFF35F8F0449054800F03BF8204610BD5E
:107E9400683200206C32002094C602006032002058
:107EA40007B500230DF107008DF80730FFF76CFCD0
:107EB400F1EE103A23F09F03E1EE103ABFF35F8F27
:107EC4000A4B4022C3F884219DF80700FFF780FC89
:107ED40003F01EFC20B103B05DF804EBFFF7C8BF4C
:107EE40020BF40BF20BF03B05DF804FB00E100E009
:107EF400836800225A60C3E904229A60DA601A6037
:107F040070470B684A684360934208BF00230160CE
:107F140008BF43607047436843B102689168526880
:107F24000B449342436004BF002343607047000046
:107F340010B50D49A1F59472914201D800200FE0CB
:107F44008C1AE30F03EBE4035B1002EBC30452F857
:107F54003330834205D802D204F10802ECE76068AA
:107F640010BD2146E8E700BF98CB020008B5FFF733
:107F7400DFFF024B002808BF184608BD5ACA02009A
:107F840010B50446C0B2FFF7D7FB204610BD4FF032
:107F94008053D3F83021082A03BFD3F83401B0FA50
:107FA40080F040090020704708B54FF0804300225C
:107FB400C3F80C21C3F81021C3F838254FF08052C0
:107FC40003F54043D2F80414C3F82015D2F808147A
:107FD400C3F82415D2F80C14C3F82815D2F81014D9
:107FE400C3F82C15D2F81414C3F83015D2F81814A9
:107FF400C3F83415D2F81C14C3F84015D2F8201471
:10800400C3F84415D2F82414C3F84815D2F8281438
:10801400C3F84C15D2F82C14C3F85015D2F8301408
:10802400C3F85415D2F83414C3F86015D2F83814D0
:10803400C3F86415D2F83C14C3F86815D2F8401498
:10804400C3F86C15D2F84424C3F87025FFF79FFFDA
:1080540018B13B4B3B4AC3F88C26FFF798FF18B185
:10806400394BFB22C3F81825FFF791FF70B14FF08D
:1080740080414FF08053D1F8E42ED3F8583222F0E7
:108084000F0203F00F031343C1F8E43EFFF77FFF31
:1080940020B12E4B4FF40072C3F840264FF08043BA
:1080A400D3F80024D20744BF6FF00102C3F80024C0
:1080B400274AD2F8883043F47003C2F88830BFF3FB
:1080C4004F8FBFF36F8F4FF01023D3F80022002A95
:1080D40003DBD3F80432002B2EDA1E4B0122C3F843
:1080E4000425D3F80024002AFBD04FF010221221DB
:1080F400C2F80012D3F80024002AFBD04FF010235A
:108104001222C3F80422134BD3F80024002AFBD014
:108114000022C3F80425D3F80024002AFBD0BFF3BF
:108124004F8F0B490C4BCA6802F4E0621343CB60D7
:10813400BFF34F8F00BFFDE7084B094A1A6008BD23
:10814400005000404881030000F0004000900240CD
:1081540000ED00E000E001400400FA05B42A00202C
:108164000090D003074B1B5C1F2B8ABF064A4FF0BD
:10817400A04203F01F03D2F80405D840C04300F026
:10818400010070479CCB020000030050074B1B5CAE
:108194001F2B86BF064903F01F034FF0A0410122A5
:1081A40002FA03F3C1F80C35704700BF9CCB020000
:1081B40000030050074B1B5C1F2B86BF064903F0CE
:1081C4001F034FF0A041012202FA03F3C1F808355E
:1081D400704700BF9CCB02000003005008B500208C
:1081E400FFF7E8FF0120FFF7E5FF0220FFF7E2FFBA
:1081F400BDE808400320FFF7DDBF08B50020FFF706
:10820400C5FF0120FFF7C2FF0220FFF7BFFFBDE853
:1082140008400320FFF7BABF0A4B185C1F288ABF27
:10822400094B4FF0A04300F01F00D3F804250121AF
:10823400814021EA02000A40C3F80805C3F80C256E
:10824400704700BF9CCB020000030050074B1B5C2F
:108254001F2B8ABF064A4FF0A04203F01F03D2F837
:108264001005D840C04300F00100704798CB0200CD
:10827400000300500B2809D00C2809D0182809D075
:1082840019280CBF03204FF0FF30704700207047BF
:108294000120704702207047014B185C704700BFF3
:1082A40098CB0200C20710B504460CD54FF0A0438A
:1082B4000322C3F83427C3F83827C3F83C27C3F88C
:1082C4004027FFF78BFFA3070AD54FF0A0430C22EA
:1082D400C3F82C27C3F83027C3F86027C3F86427F2
:1082E40010BD000038B5074C051E04F1080318BF83
:1082F4001C4623682BB11A6822605B68284698479D
:10830400F7E738BD7832002020B9054B01225A70B6
:10831400FFF7E8BF012802D1014A9070F8E77047DF
:108324007032002020B9034B01225A70FFF7DABFE4
:10833400704700BF7032002038B50B4C237883B9E6
:108344000A486360A3602361E36000F0D5F8054642
:1083540003F0DEF908B900F0DBF8012323702846A6
:1083640038BD8525FBE700BF703200200D83020075
:1083740037B50B4C00230DF107008DF80730FFF7DC
:1083840003FAE368013BE360E56815B900F0D4F84B
:10839400A5709DF80700FFF71BFA03B030BD00BFBE
:1083A40070320020012813B508D003281CD018B956
:1083B400114B0122C3F8802002B010BD0F4C0023E2
:1083C4000DF107008DF80730FFF7DEF923780BB9BC
:1083D400FFF7B2FFE3689DF807000133E360012370
:1083E400A370FFF7F5F9E7E700F092F802B0BDE8F3
:1083F4001040FFF7BDBF00BF00E100E07032002075
:108404001FB503788DF8003043680193037A8DF823
:108414000830C368054A0393054B684653F8213076
:1084240052F82110984705B05DF804FB843200200F
:108434008C3200201FB503788DF800304368019317
:1084440083688DF80830C368054A0393054B684672
:1084540053F8213052F82110984705B05DF804FB19
:10846400843200208C320020F0B5194B90F800C003
:10847400DFF86CE043F82C20164B16460A6943F8E3
:108484002C204B7F0EF80C300C4607460FCC89B0DD
:108494006D460FC594E80F0085E80F003B78CDF8D2
:1084A40010C01EF803304BB1002E0B4A694608BFBA
:1084B4003246381D00F004FE09B0F0BD002E074A14
:1084C400694608BF324607F10C0000F0BDFBF3E734
:1084D4008C3200208432002005840200398402009A
:1084E4009432002000F18040002382B003600368CE
:1084F4000193019B02B07047044A137923B9012107
:10850400106091801846704785207047983200208B
:10851400084B1A68D20706D4C02283F8002301222C
:10852400C3F880211A604FF080430122C3F8182554
:10853400704700BF00E100E04FF080430122DA60A1
:10854400D3F81824D203FBD4704700004FF08041C5
:1085540010B5D1F8003163B14FF48070FFF7C2FF5A
:108564000D4B58790122C1F8082310B95A711B68C0
:1085740098474FF08042D2F8043163B14FF48270CF
:10858400FFF7B0FF0223C2F80833034BBDE81040E5
:108594001B680120184710BD9832002000F180406C
:1085A40000F5C040002382B0036003680193019B7F
:1085B40002B0704703681F2B83BF03F01F030360DF
:1085C40001484FF0A04070470003005007B50190E8
:1085D40001A8FFF7EFFF019B00EB8300D0F8003701
:1085E40023F44033C0F80037D0F8003743EA0141A0
:1085F400C0F8001703B05DF804FBC208012300F0C3
:10860400070003FA00F08B5C18438854704700009D
:10861400054B4FF0FF32072843F8202084BFC018D1
:1086240080F85820704700BFA032002010B5184CC5
:1086340094F86A3053BB04F130033021FF2201392E
:1086440011F0FF0103F8012BF9D1C8B20131FFF792
:10865400DFFF0C29F9D106220E48002103F040FB6C
:108664000D4BC02283F806234022C3F880214FF427
:10867400BE701A60FFF792FF084B4FF00042C3F838
:108684000423012384F86A30002010BD0820FCE78D
:10869400A03200200433002000E100E0006000402C
:1086A400034B93F86A00003818BF0120704700BFDD
:1086B400A03200202DE9F341DFF8F48008EB000339
:1086C400054693F93030002B0F466CDA8B78C3F3F0
:1086D4004003002B0BBF082400240C2108218C42EA
:1086E40003D1042002B0BDE8F08158F82400013021
:1086F40041D108EB050166B248F8242081F83060C6
:108704001BB908EB040383F85850BB785A0712D4FA
:10871400D90732D501A80195FFF74CFF019B00EB67
:108724008300D0F8003723F00203C0F800371F4954
:108734002846FFF762FFBB783A7813F0020328D08B
:10874400A40004F1804404F5C0442D02D4F810358B
:1087540023F44F3323F44073C4F810351204D4F8CF
:10876400103505F47C5502F4403215431D43C4F81A
:1087740010550020B6E70134B1E701A87A780195D5
:10878400FFF718FF019B03F5E073920040F82320E4
:10879400CDE7083E48FA86F898F8605045EA821218
:1087A40088F86020E5E708209CE700BF0433002038
:1087B400A032002073B5244D2E18044696F93020BB
:1087C400072A1DDD083A45FA82F595F860309B09C1
:1087D400032B10D1019001A8FFF7ECFE019BD0F808
:1087E4001015D94001F001010231204602B0BDE864
:1087F4007040FFF7EBBE012B0CBF02210321F4E70D
:10880400D3B2072B1DD8930003F1804303F5C04373
:10881400D3F8100540F00100C3F8100502F1400040
:1088240040B2800080B2FFF7B9FE51B196F9303002
:1088340055F823302BB1012303FA02F2034BC3F89A
:10884400042302B070BD00BFA032002000600040CD
:1088540007B5019001A8FFF7ADFE019BD0F8100504
:10886400D84000F0010003B05DF804FB2DE9F04F9F
:1088740000248BB0CDE90444644D4FF4807201218F
:1088840002F1804303F5C04390B21B68012B06D16B
:10889400D5F804330B4202D0FFF780FE0C430432B8
:1088A400B2F5907F4FEA4101EAD1584BD3F87C31BD
:1088B400012B0ED14FF4BE70FFF770FE4FF0A043B2
:1088C40044F00044D3F810350493514BD3F81035D9
:1088D4000593E3B2D3B14F4F00250126344210D0A3
:1088E400AB0003F1804303F5C043D3F81005D3F87C
:1088F400101557F8253023B1C1F30141C0F3052009
:1089040098470135082D4FEA4606E7D1002C79DA5D
:108914000023CDE906334FF0FF33CDE90833DFF808
:10892400F4A03D4B019300263546019B13F9014BFE
:108934000193631C4DD0C4F3C2070122E3B204F0D7
:108944003F0B04F0070402FA04F40AAA174417F8C8
:10895400081C21423DD00AEB0B014FEA931991F90F
:1089640030105AF82180B8F1000F07D1B9F1030F84
:108974002FD106A95846FFF740FE02E0B9F1030FD4
:10898400F7D003A8CDF80CB0FFF714FE039901F556
:10899400E07150F8211017F8180C2042C1F301417E
:1089A40006D0022915D1B9F1030F0CD1494605E0CF
:1089B40003290ED1B9F1030F05D102215846FFF75F
:1089C40005FE0135EDB2B8F1000F02D04946584614
:1089D400C0470136042EA8D1A5B14FF0A043049995
:1089E400D3F8102503F540739142D3F8103502D122
:1089F4000599994206D004920593069A079B08921A
:108A040009938EE70BB0BDE8F08F00BF0060004013
:108A140000030050A032002000330020014B1B68EB
:108A2400184700BF0C3300200E4B984237B50C4654
:108A340002D0002003B030BD00230DF107008DF8F3
:108A44000730FEF7A1FE084B1D7915B901221C6001
:108A54001A719DF80700FEF7BBFE002DE9D0112026
:108A6400E8E700BF002000400C33002000234350FF
:108A740082B043580193019B02B070470A4610B577
:108A84004FF48E71FFF7F2FF136A9168C95C136AA1
:108A940001331362C0F81C1510BD024608B5006806
:108AA4004FF49271FFF7E2FF10684FF48471FFF7FF
:108AB400DDFF136801221A6008BD8B690A4610B5F0
:108AC4004FF4847123B9FFF7D1FFD0F8183510BDE6
:108AD400FFF7CCFF536AD168D0F81805C854536A1D
:108AE40001335362F3E700001FB501238DF8003012
:108AF400044BCDE90110D3E900126846904705B054
:108B04005DF804FB1433002030B54D4DD5F8043323
:108B14009A0585B051D5D5F82431002B4DD04FF4AA
:108B240092712846FFF7A2FF4FF40173C5F808338A
:108B3400444B93F829200AB901226A604049022271
:108B44008DF80020D1F88024C1F8802403929A691A
:108B54000292DA6801920022C3E906226846D3E948
:108B6400001290473648D0F81C315BB1354A116A7F
:108B7400536999424DD292F82830002B49D11146BD
:108B8400FFF77CFF2E48D0F84431002B55D04FF42A
:108B9400A271FFF76BFF2B4B93F829200AB1012236
:108BA40002609A69002A48D0586AD96800229A61FA
:108BB40005B0BDE83040FFF797BFD5F804335B0735
:108BC400D0D5D5F80831002BCCD01E4C1C482146FA
:108BD400FFF773FF636AA2699A42C3D1E369E1684C
:108BE4004BB1A3612369E3600023606AE3616362BC
:108BF400FFF77AFFB6E794F829300BB901236B60CD
:108C04000F4B4FF40172C3F808230023606AA36179
:108C1400EEE74FF48E710A48FFF728FF51690029E7
:108C2400B0D00023029191688DF800300191536116
:108C34006846D2E900139847A4E705B030BD00BFE9
:108C440000200040143300202DE9F843664D90F8CD
:108C540004802C2303FB0853064693F82A300C4661
:108C64009146002B40F0BB8060490068FFF7DCFEB2
:108C74000746002840F0B5802268531C10D01F2AF4
:108C840087BF5B4902F01F0313464FF0A041012048
:108C9400984003F5E073C1F80805032041F8230068
:108CA4006168481C0DD01F298BBF01F01F030B46C0
:108CB4004F484FF0A04003F5E0734FF0000C40F82C
:108CC40023C03068A369C0F8243594F814C0637DC8
:108CD400BCF1010F4CEA0303C0F86C35C0F814155D
:108CE400C0F80C252BD1A368591C0DD01F2B8BBFAA
:108CF40003F01F021A463E494FF0A04102F5E0720C
:108D04004FF0000C41F822C0E1684A1C13D01F291F
:108D140087BF374A01F01F0C8C464FF0A0424FF03A
:108D2400010E0EFA0CFE0CF5E07CC2F808E54FF0DB
:108D3400030E42F82CE0C0F80815C0F810352C22B8
:108D440002FB08F2AB18C3F804902369AB50B9F1E5
:108D5400000F31D04FF48E71227FFFF787FE306809
:108D64004FF4A271FFF782FE33682249C3F804135B
:108D7400190B43F30733002BA8BF03F160404FEAFC
:108D84005313BCBF01F00F041B484FEA4212A8BFA3
:108D940000F561404FEA8303D2B203F16043B4BFEC
:108DA400025580F8002303F5614301F01F010122FD
:108DB4008A40C3F880211A6033680422C3F800256E
:108DC4002C2303FB08530022C3E9062283F829203D
:108DD4005A61012283F82A203846BDE8F88308271F
:108DE400FAE71127F8E700BF143300200D8B0200C7
:108DF400000300508000020014ED00E00279044BEF
:108E04002C2101FB02335869003818BF0120704738
:108E1400143300202DE9F84F064689469246FFF7A1
:108E2400EDFF044600283DD196F804801F4F2C2501
:108E340008FB057B4FF48E71CBF82000CBF814A00F
:108E44008BF82800CBF808903068FFF70FFE3068E5
:108E5400012383605946FFF711FEDBF804305D46B9
:108E640013BB30682A6A6B699A4211D33368D3F80A
:108E74001C21002AFBD00122DA6000202C2303FBF2
:108E8400087700237B61BDE8F88F95F828303BB95B
:108E9400D0F81C31002BF8D05946FFF7EFFDE1E77D
:108EA4000F20EBE71120EEE72046ECE71433002017
:108EB4002DE9F0473A4D07792C2303FB0753064667
:108EC4005C6824B103684FF40170C3F808032C23D1
:108ED40003FB0753986950B1D869002841D024B1E5
:108EE40033684FF40172C3F80423112436E09A6105
:108EF400D9605862D8612C2303FB075393F82930B7
:108F04001BB910B93046FFF7C8FD4FF02C0808FB19
:108F1400075A3068DAF80430002B37D14FF4A271C5
:108F2400D046FFF7A3FD3068D0F82491D0F808317B
:108F3400D0F84441CBB914B9B9F1000FF3D02C23C4
:108F440003FB07550023AB61B9F1000F24D12CBBFF
:108F540095F8291033680122B1B11A602046BDE8A2
:108F6400F0871961DA610120C5E7B9F1000FE6D194
:108F7400002CE4D14146FFF7A0FDDAF82430DAF8FA
:108F840018209A42CFD8DAE75A60E7E74FF4017322
:108F9400C0F804330024E1E70324DFE70F24DDE70E
:108FA400143300200023435082B043580193019BA3
:108FB40002B070471FB501238DF80030054B8DF8C2
:108FC400080001916846D3E90012904705B05DF8A6
:108FD40004FB00BF403300207FB5374AD2F8246138
:108FE400002E47D010464FF49271FFF7DBFF0223A7
:108FF4008DF80030D2F88034C2F880340393D2F86C
:109004003C358DF808302D4BDA6801920022C3E913
:1090140006226846D3E9001290472748D0F8443125
:109024006BB14FF4A271FFF7BDFF244B9A6932B1C3
:1090340000229A61D0F83C05D968FFF7BBFF1E48AF
:10904400D0F82031A3B14FF49071FFF7ABFF1B4B65
:109054005A696AB1D0F84C158DF808100022996845
:109064008DF8002001915A616846D3E900129047B7
:1090740004B070BDD2F81031002BCED04FF48871FB
:109084001046FFF78FFF0D4BD2F83C0599698842D3
:10909400C3D1DC69D96864B1D2F8005225F0200547
:1090A400C2F800521A699C61DA60DE61FFF782FF40
:1090B400B3E79C61FAE700BF002000404033002082
:1090C4002DE9F8436A4E90F80480242303FB0863D7
:1090D400054693F820300C469146002B40F0C3809F
:1090E40064490068FFF7A0FC0746002840F0BD80F3
:1090F40021684B1C10D01F2987BF5F4A01F01F0352
:109104000B464FF0A0420120984003F5E073C2F8EB
:109114000805032042F823006268501C0DD01F2A62
:109124008BBF02F01F03134653484FF0A04003F5D2
:10913400E0734FF0000C40F823C02868A369C0F81E
:10914400243594F814C0637DBCF1010F4CEA030389
:10915400C0F86C35C0F80C15C0F814252BD1A368E1
:10916400591C0DD01F2B8BBF03F01F021A46424916
:109174004FF0A04102F5E0724FF0000C41F822C01C
:10918400E1684A1C13D01F2987BF3B4A01F01F0C1A
:109194008C464FF0A0424FF0010E0EFA0CFE0CF577
:1091A400E07CC2F808E54FF0030E42F82CE0C0F86A
:1091B4000815C0F81035242202FB08F2B318C3F8CE
:1091C40004902369B350B9F1000F3BD04FF4887178
:1091D400227FFFF7E7FE28684FF49071FFF7E2FE65
:1091E40028684FF49271FFF7DDFE28684FF4A271EE
:1091F400FFF7D8FE2B682149C3F80413190B43F376
:109204000733002BA8BF03F160404FEA5313BCBFE0
:1092140001F00F041A484FEA4212A8BF00F561405A
:109224004FEA8303D2B203F16043B4BF025580F81E
:10923400002303F5614301F01F0101228A40C3F8B2
:1092440080211A602B680822C3F80025242303FB1D
:1092540008660023C6E906337361012386F82030CB
:109264003846BDE8F8830827FAE71127F8E700BF76
:1092740040330020DD8F0200000300501003020081
:1092840014ED00E00279044B242101FB02335869F8
:10929400003818BF01207047403300202DE9F843FF
:1092A40001F06043B3F1005F06468846914634D12D
:1092B400FFF7E8FF044690BB32791B4F3068242542
:1092C40005FB02754FF49071C5F81490C5F8088039
:1092D400FFF768FE30684FF4AC71FFF763FE336844
:1092E4006969A868C3F84405C3F848150121996061
:1092F4006968B1B9D3F82011D3F8580149B90028E5
:10930400F8D00F20242303FB027700237B61BDE800
:10931400F883002818BF0F20F4E71020F7E7112086
:10932400F5E72046F3E700BF40330020F8B501F02D
:109334006043B3F1005F04460F465ED10379304DBC
:10934400242101FB0351496821B100684FF40476DC
:10935400C0F80863242000FB03539E6956B1D86902
:10936400002839D021B123684FF40472C3F80423D0
:10937400112030E09A61DF60DE6120684FF488716B
:10938400FFF710FE20684FF4A271FFF70BFE23686D
:10939400C3F83475C3F8382516BB01221A60247942
:1093A400242202FB045252680ABBD3F81011D3F8EA
:1093B4004421D3F82401114302D10028F5D00A46F0
:1093C400242303FB04550023984218BF03209A4228
:1093D400AB6118BF0F20F8BD1F61DA610126CCE72D
:1093E400D3F8002242F02002C3F80022D7E74FF45A
:1093F4000472C3F804230020EDE71020EBE700BF5C
:10940400403300201F288ABF094B4FF0A04300F0CF
:109414001F0003EB8000D0F8003723F44033C0F87A
:109424000037D0F8003743EA0141C0F8001770470D
:10943400000300500220FEF7EFBE00002DE9F047C4
:1094440080460D46FEF716FF0328044610D8012D6A
:1094540010D0022D30D05DB91A48FEF779F81A4BB6
:1094640004EB440213449D78184B1B5DAB4219D0A6
:10947400BDE8F087144E00EB4003F218F55C537816
:10948400470053B1DFF84C900E484A464FF4004170
:10949400FEF716F808B989F8008027443E440B4BC0
:1094A400B2781A55002DE3D0094B1B68002BDFD08E
:1094B4002846BDE8F047184700EB4004024804443E
:1094C4006578EFE788330020C8330020E1330020BB
:1094D400DC3300206433002000780221FFF7AEBFA4
:1094E40008B5094B1B7853B10020FEF763FE012039
:1094F400FEF760FEBDE808400320FEF75BBEBDE852
:109504000840FEF76BBE00BF65330020F8B57A4C07
:10951400237805461BB100232370FFF7E1FF172DC5
:1095240000F28780DFE805F00C1717425364757F5B
:10953400878C878C949999999999C3C8D0D8E3E377
:10954400FFF7CEFF6D48FEF703F86D4B002204468B
:109554001A702046F8BD0020FEF704FEF0B100208A
:10956400FEF728FE022D0CBF4FF4E1644FF47A6439
:10957400634B1D7000254FF400464FF4FA702946E2
:109584004FF47A720023E4FB060102F053FA2A46F0
:109594000146BDE8F8405948FDF792BFFEF7F6FDD5
:1095A400022D0CBFC8244FF4C874E1E70020FEF775
:1095B400D9FD40B10020FEF7FDFD4FF44874504B37
:1095C40003221A70D6E7FEF7E1FDC824F7E700206E
:1095D400FEF7C8FD38B10020FEF7ECFD4FF47A64C5
:1095E400474B0422EDE7FEF7D1FD4FF4C874F7E7CB
:1095F4000020FEF7B7FD48B10020FEF7DBFD404B2D
:1096040005221A7041F69A110022C2E7FEF7BEFD48
:10961400F5E70020FEF700FE394B06221A700022FF
:1096240040F6CD41B5E70020FEF7B0FD344B0722EC
:109634001A7000248DE701202070FEF7EDFDEEE79F
:1096440001202070FEF7E8FD00224FF48041A0E7DE
:10965400FEF7D3FD2A4B0C22EAE72A482A4EFDF7EF
:1096640077FFD5F1110504461CD0D8B9012D13D0CC
:10967400C820454321464FF400474FF4FA704FF495
:109684007A720023C5FB070102F0D4F92246014691
:109694001C48FDF715FF04460220FEF777FD012361
:1096A400337056E70220FEF785FD0023F8E7FFF745
:1096B40017FF134B1222BBE7FFF712FF0020FEF740
:1096C40065FD0F4B1322B3E7FFF70AFF0120FEF7F6
:1096D4005DFD0B4B1422ABE7FFF702FF0020FEF702
:1096E40055FD0120FEF752FD054B1522A0E7FEF7BC
:1096F40084FD034B1D709CE7D8330020A833002061
:10970400E03300206833002065330020044B1B68DD
:10971400DB0703D5034B1878FFF7F8BE704700BF8B
:10972400D4330020E0330020032801D8FEF78EBD97
:1097340000207047044B1B6813F0010301D0FFF7AE
:10974400E5BE1846704700BFD433002038B51C4B23
:1097540018601C4B10F00204054619601AD01A4B0D
:109764001A480E221A700F22DA7010229A711122EE
:109774005A72042140F26662FDF76CFB044648B954
:10978400FDF7BEFB044628B90146114A1148FDF70E
:1097940085FE0446EB0711D50120FEF783FD6CB965
:1097A40021460D4A0D48FDF779FE044630B9BDE85F
:1097B40038400B4A0B480121FDF770BE204638BDE6
:1097C400D4330020DC330020C8330020C0CB020097
:1097D400DD940200E4CB020011970200E8CB020002
:1097E40039940200E0CB0200032811D8012A0AD1DF
:1097F40001290FD100F10E02D2B20D4B00EB400053
:109804001A54002070470129F7D0022904D049B125
:10981400072070470022F8E7054B00EB400018448E
:109824004270EEE7024B00EB400018448270E8E718
:10983400C8330020032808B506D8FEF72DFD032100
:10984400FFF7E0FD002008BD0620FCE708B5012273
:1098540002210020FFF7C8FF08B1072810D1072212
:1098640002210120FFF7C0FF08B1072808D1002119
:109874000A220846FFF7B8FF10B1072808BF0020E6
:1098840008BD00000388102B10B502D0112B1ED088
:1098940010BD1A4C2168B1B901220846FFF7A4FF94
:1098A40008B1072824D1072202210120FFF79CFFD9
:1098B40008B107281CD1042202210020FFF794FFDD
:1098C40008B1072814D1236801332360E0E70B4A69
:1098D4001368013B1360002BDAD1FFF7B7FF0028B0
:1098E400D6D0074B1B68002BD2D0BDE810401847D8
:1098F400034B1B68002BE6D09847E4E7EC330020C9
:10990400E833002008B50020FFF794FF08B10628CB
:1099140006D10120FFF78EFF10B1062808BF0020F2
:1099240008BD00000D4B10B518600C4629B101208C
:10993400FFF7FAFE40B102232370094B1B6853B9A9
:10994400BDE81040FFF782BFFFF7EEFE08B10B231E
:10995400F2E72070F1E7002010BD00BFE8330020DB
:10996400EC33002076DF70477ADF70477CDF704786
:109974007FDF70478FDF7047B1DF704733DF704799
:10998400FDF7D4BA08B50020FFF7D4FE08B1FDF7FF
:10999400CDFAFFF7B7FF08B1FDF7C8FAFFF7EEFFFE
:1099A40018B1BDE80840FDF7C1BA08BD0388212BF2
:1099B40013B504463FD007D8112B2DD0132B48D014
:1099C400102B0CD002B010BD522B4AD0562B01D014
:1099D4003B2BF7D1A0881321FFF7C4FF15E0254BDB
:1099E40025482649C01AC008000440F00300FDF7CA
:1099F40013F80720FFF79EFE08B1FDF797FA204BF6
:109A0400A1882048198001F04DFC0028DAD002B06A
:109A1400BDE81040FDF78ABA164B17481A49C01A18
:109A2400C008000440F00300FCF7F6FF144B4FF6A7
:109A3400FF721A80C6E7002380888DF8043001A9DC
:109A44008DF80530FFF796FF0028BBD0FDF76EFABE
:109A5400B8E70B4800231A4685210088FFF788FFE2
:109A6400D3E7074800231A4619460088FFF784FF06
:109A7400CBE700BFA8C40200D0C40200ECCB0200B4
:109A8400BE2A002058370020F6CB020008B5037820
:109A94004BB9054B3B211888FFF764FF18B1BDE8AB
:109AA4000840FDF743BA08BDBE2A0020072808B5C0
:109AB40013D00A280DD0042819D10D4B132118886E
:109AC400FFF750FF30F0080311D0BDE80840FDF760
:109AD4002DBABDE80840FFF755BF054B1A884FF66D
:109AE400FF739A4203D1034800F093FFEAE708BDED
:109AF400BE2A0020E834002008B548B103280BD161
:109B04000220FFF717FE38B1BDE80840FDF70EBA92
:109B1400BDE80840FFF736BF08BD0000F7B503787D
:109B2400012B33D0022B31D073BB1B4C1B4D20783F
:109B34002844FDF7EBFD23780133DBB21D44237089
:109B440015F8012C0A2A05D00D2A03D0144A1288CC
:109B54009A4219D8012B15D9124D104E124F237861
:109B6400ADF806300DF106022B883146384601F077
:109B740013FD082806D01328F1D0052802D008B117
:109B8400FDF7D4F90023237003B0F0BD406803B09F
:109B9400BDE8F040FDF7CAB9E4340020F0330020FA
:109BA400BC2A0020BE2A0020C02A00202DE9F04152
:109BB4000578064645BB154C154BDFF85880E41A6A
:109BC400E408240444F00104B28A95420AD33369B8
:109BD400134413F8013C0D2B16D10A20FDF7ACFDFC
:109BE4001128F9E73369585DFDF7A6FD074648B12A
:109BF4001128F7D0024641462046FCF711FF3846AB
:109C0400FDF794F90135DFE7BDE8F081D0C4020027
:109C1400A8C4020003CC02000D4B4A881B889A4258
:109C240014D10A8840F677239A420FD18B88094AC7
:109C340009480A49033B9BB21380094A801AC008A9
:109C440000041A4640F00300FCF7F3BE704700BF5F
:109C5400BE2A0020BC2A0020D0C402002ECC020060
:109C6400A8C40200FDF762B908B50849084801F024
:109C7400F9F908B1FDF75AF90548F72101F006FA98
:109C840018B1BDE80840FDF751B908BD1D9C02009C
:109C9400403700202DE9F047AB4D0FCDADF57C7D6D
:109CA400CAAC0FC495E8030098ADA84BA84A2B6032
:109CB40084E803004FF48073CAACC5E902236B60E7
:109CC400A44A072329462046FDF7C8FC08B1FDF73E
:109CD4002DF94FF400410020FCF7E2FC08B1FDF738
:109CE40025F9FCF711FCFDF7A9FB08B1FDF71EF9F6
:109CF40099490320FFF72AFD08B1FDF717F921461A
:109D04000020FFF70FFE08B1FDF710F9FEF7B2F8D7
:109D140008B1FDF70BF901F0BDFC08B1FDF706F938
:109D2400002321460120CA9301F046FD08B1FDF746
:109D3400FDF8204601F010FE08B1FDF7F7F81123F5
:109D440086482B7002F021F8844982B22846FFF736
:109D54000DFE08B1FDF7EAF808220021204601F0C3
:109D6400BFFF1023ADF828333C23ADF82A3300237A
:109D7400ADF82C3320464FF4C873ADF82E33FFF7FB
:109D8400F3FD08B1FDF7D2F8FFF76EFF744B754889
:109D9400CA93214601F074FA08B1FDF7C7F800210F
:109DA4000422284601F09CFF6F4B70482B60294623
:109DB40001F078FB08B1FDF7B9F8AC220021204688
:109DC40001F08EFF02238DF828334FF4A063684A14
:109DD400ADF82A330123ADF87433DE928DF8A43341
:109DE400402244F25063CDE9EC236248624BF39382
:109DF400214600F04FFC08B1FDF798F85D480121B9
:109E040000F045FC1C220021204601F069FF0023DC
:109E14004FF42032CDE9CA32ADF836334FF4702214
:109E24008DF83833554BCC92CF930322544B8DF895
:109E340034232046D09300F00BFF08B1FDF776F8E9
:109E4400504801F0F3FE504B50485149C01AC00825
:109E5400000440F00300FCF7DFFD4648032100F056
:109E640090FC08B1FDF762F8C82302AA01931746D3
:109E7400002322F8023B02339BB2C82BF9D1012301
:109E840034AE5A0026F813200133642BF9D1012390
:109E940033800DF5CC785A0028F813200133642B55
:109EA400F9D10223A8F8003001235A0025F8132021
:109EB4000133642BF9D103232B8001235A0024F8A6
:109EC40013200133642BF9D1324DDFF8D0A00423E1
:109ED400ADF828330A2445F00105504601F0A6FEEA
:109EE4004FF47A794FF47A40A847B9F10109F9D1CE
:109EF400013CF2D1284DDFF874904FF0100A2B8802
:109F040001AA3946484601F047FB0828044608D010
:109F14001328F4D0052804D018B1FDF707F8132C42
:109F2400EDD02B8801AA3146484601F035FB0828BC
:109F3400044635D01328F4D0052831D080B3FCF77B
:109F4400F5FF132CEDD02BE098CC020064370020F1
:109F540064380020219B0200B19A02004ACC02001E
:109F64008599020058370020B19B0200C02A0020C6
:109F7400B82A0020E8340020FD9A0200919A0200D9
:109F8400699C020056CC0200A8C40200D0C402009E
:109F940068CC0200B0CC0200BE2A002091CC0200A2
:109FA4002B8801AA4146484601F0F6FA08280446DF
:109FB40008D01328F4D0052804D018B1FCF7B6FF54
:109FC400132CEDD02B8801AA98A9484601F0E4FA95
:109FD4000828044608D01328F4D0052804D018B162
:109FE400FCF7A4FF132CEDD02B8801AACAA948467C
:109FF40001F0D2FA082806D01328F5D0052802D09B
:10A0040008B1FCF793FFBAF1010A7FF478AFFCF7CB
:10A01400A1FBFDF745FFFAE70369C26893429CBFC1
:10A0240080681B18013B981A70472DE9F843D0E962
:10A0340002940546A9EB04084068904520440F4665
:10A04400144404D901F023FEEC60BDE8F8834246D1
:10A05400A4EB090401F01BFE6868224607EB080123
:10A06400F0E72DE9F843C5680646894617464FF0E0
:10A0740000083469B3687068A54228BFE418013C3D
:10A08400621B5C1BBC4228BF3C46944228BF14465A
:10A0940049462844224601F0FAFDB3682544AB4200
:10A0A40008BF00253F1BA044A144F560E1D1404610
:10A0B400BDE8F88310B5114C114AA2610223C4E92A
:10A0C4000433104BE361A2644FF400730E4A0F494A
:10A0D4002362E26400231022E01DA3626362E36250
:10A0E400A3656365E365226501F02DFE08492046FA
:10A0F40001F029FE2023A37110BD00BF64390020A4
:10A10400B6CC0200EC390020DC390020BFCC0200C0
:10A11400C3CC020070B5164B182400FB04451D4443
:10A1240004FB00331646DC6A012C0ED0022C18D036
:10A13400E4B92846FFF770FF864204D83246284621
:10A14400FFF773FF3446204670BD2846FFF764FFCF
:10A154008642344628BF044622462846FFF765FF58
:10A16400F1E72846BDE87040FFF77BBF0024EAE72B
:10A1740064390020FFF79EBF6DDF704779DF7047B9
:10A184007DDF704764DF70472DE9F04F85B000250F
:10A194000E9CBDF83CB0B4F800A00191074690466F
:10A1A4001E46A9463A884A450DDC45B12388013B41
:10A1B400A3EB0A039BB2FF2B3AD806F80A3000201F
:10A1C40005B0BDE8F08F7A6852F8290003900022A8
:10A1D4000DF10B0103A8FFF7D5FF0028F0D19DF87E
:10A1E4000B20424521D12288002D14BF00200220DB
:10A1F40002EB0801014459451ADC3DB9013292B21F
:10A20400019B2280B35422880132228022880DF1DE
:10A214000B01324403A8FFF7B5FF0028D0D12188F1
:10A224009DF80B200A442280012509F10109B9E7B0
:10A234000C20C5E72DE9F341089FBDF8248015469D
:10A24400CDE90078022204461E46FFF79DFF50B96F
:10A254003346102229462046CDE9087802B0BDE8ED
:10A26400F041FFF791BF02B0BDE8F0812DE9F04F56
:10A2740000231788138090F82D3085B006460D46CC
:10A28400144653B3082F01D80C2027E102A8FFF786
:10A2940073FF002840F0228123880822EA5423888F
:10A2A40001339BB21B222380EA542088013080B200
:10A2B400208006220DF10901284401F0E8FC2388DE
:10A2C4009DF8082006339BB212F0FE0218BF01224B
:10A2D4002380EA54238801332380B378FBB1238895
:10A2E4000433BB42D0D802A8FFF748FF002840F04F
:10A2F400F58023880322EA54238801339BB2192270
:10A304002380EA542388BDF8082001339BB2E9185E
:10A314002380EA54120A4A70238802332380F27895
:10A324009AB12388D91CB942AED80221E9542388B2
:10A3340001339BB201212380E95423880B449BB24F
:10A344002380EA5423880B4423807268AAB12388AB
:10A35400D91CB94298D8022192F90020E9542388E3
:10A3640001339BB20A212380E954238801339BB231
:10A374002380EA542388013323803389002B40F05F
:10A38400A180338A5BB1CDE900472B460722032124
:10A3940006F11000FFF74EFF002840F09F80338B3A
:10A3A4005BB1CDE900472B461522142106F11800B4
:10A3B400FFF740FF002840F09180326A002A40F005
:10A3C4009080D6F82480B8F1000F30D0B8F804306B
:10A3D4002188981C8A1C0244BA423FF655AFFE28D5
:10A3E4003FF652AF03336B54238801339BB2FF22F1
:10A3F4002380EA54238801339BB22380B8F80020D9
:10A40400EA54E918120A4A702088023080B2208087
:10A41400B8F804205AB1D8F8081000296BD02844A1
:10A4240001F035FC2388B8F804201344238096F8FF
:10A434002C30002B40F09880307800284ED03388A0
:10A44400012B58D0228802F1020CBC453FF61CAF08
:10A45400012805D17378023313449F42FFF414AFEB
:10A46400023FBF1ABFB202A905EB0C00ADF8087099
:10A47400FFF786FE90BB3178BDF80830022900F062
:10A48400B98072789A4202D39F4280F0B180012948
:10A4940040F0B280974293B2C0F0AE80ADF808307D
:10A4A4000821BDF80830FE2B3FF6EEAE22880133BA
:10A4B400AB542288013292B22280A95422881344D8
:10A4C40023800BE0CDE900472B460622022106F14A
:10A4D4000800FFF7AFFE00283FF453AF05B0BDE816
:10A4E400F08FB4F800C00CF10603BB423FF6CCAECB
:10A4F4001188052901D80720F0E76FF4486E01EBB5
:10A504000E039BB24FF27D3E7345F4D95388052B5D
:10A51400F1D96FF44860181880B27045EBD94FF642
:10A52400FF70814201D09942E5D8052305F80C302B
:10A53400238801339BB212212380E95423880133F9
:10A544009BB223801188E954E818090A41702388D2
:10A5540002339BB223805288EA54E918120A4A70E3
:10A564002388023323802CE7B36A002BC3D04FF037
:10A5740000084FF00C0A4FF0160BB16A5FFA88F22C
:10A584000AFB02F201EB0209B9F80430981CFE2818
:10A594003FF67AAE208803332B54238801339BB2D1
:10A5A400238005F803B0238801339BB223808A5AA1
:10A5B400EA54E918120A4A702088023080B22080D6
:10A5C400B9F804205AB1D9F80810002993D02844C6
:10A5D40001F05DFB2388B9F804201344238096F826
:10A5E4002C2008F101085FFA88F39A42C5D823E7C2
:10A5F400092156E79F42FBD2ADF8087050E770B5C9
:10A60400C0B14AB116880024B44203D305196D7849
:10A614009D4208D0A14201D800200BE0055D013520
:10A624002C44A4B2F0E7A142F6D9A31C1380005D28
:10A63400013880B270BD13B513460022ADF8062070
:10A644000DF106020446FFF7DAFF10B1BDF806303B
:10A65400E01802B010BD72DF704773DF704774DF1B
:10A66400704738B5012204460D46B0F83812D0F8C8
:10A674003402FFF7E0FF00B1057004F13C0204F579
:10A684000D7104F15400BDE83840FFF7E4BF80F8D1
:10A6940030107047F8B504460F4600296DD00028E5
:10A6A4006BD091F87A301BB191F89830002B66D1B9
:10A6B4004FF0000C84F802C007F178060FCE251D78
:10A6C4000FC50FCE0FC596E8070085E8070084F88C
:10A6D40030C0D7F8A4306363D7F8A830A3634FF62B
:10A6E400FF7504F50D73C4F84432A4F848520722E8
:10A6F400614604F24A2001F0F3FA23780BB984F896
:10A70400545094F82430002B14BFEE231F2304F17B
:10A714005501C4F83412A4F8383204F50E723846E0
:10A72400FFF7A4FD40BB94F82430002B14BFEE23A4
:10A734001F2304F24311C4F83C12A4F8403204F578
:10A74400107207F13C00FFF791FDA8B9A369A4F8C2
:10A7540048304FF480730125A4F8503063692064B5
:10A76400014684F83C50636404F13C0204F1540053
:10A77400FFF771FF00B92570F8BD0E20FCE7072034
:10A78400FAE7F8B5077804460D46002F00F0098172
:10A7940000F24A26817007220021304601F0A0FA17
:10A7A400E38813B1A378012B04D0E3794BB1A378E8
:10A7B400022B06D1636BABB1012284F8512208202D
:10A7C400984704F24B2304F2512113F8012B12B9D8
:10A7D4009942FAD117466B1E032B54D8DFE803F0D5
:10A7E400050B0F1284F85132EBE7A3791BB194F8EF
:10A7F400243003B95FB9E3790BB1002F45D1237A33
:10A80400002B44D1637A002B0CBF00250425636B15
:10A81400A570002B3DD0033D012D3AD86279002A62
:10A8240037D094F85222A2BB84F85422012284F82F
:10A8340053220720984704F13C050021182228469A
:10A8440001F04EFAE16A0123481E984284F83C3034
:10A8540001D9042900D1CBB294F8242084F85130D2
:10A8640032B1012819D9042917D0012384F85230B0
:10A87400A178002384F8503004291DD8DFE801F0C2
:10A88400790F24375B000025C1E70225BFE70325C4
:10A89400BDE7002384F85332CDE7A36AE6E7C4E9B1
:10A8A4001063C4F844320223012284F83C3080232C
:10A8B40084F83120A4F84830A378002B5CD1636B72
:10A8C400002B6AD1002067E00223002A84F831308B
:10A8D40014BF0723032384F83C302369A4F84830C9
:10A8E4000023C4F84432E36826646364E4E76369DC
:10A8F4006364A369A4F8483012B1062384F83C3099
:10A904006379B3B194F852329BB994F8543283B159
:10A91400022384F8503004212046FFF7A2FE0028C9
:10A92400CAD1052384F8313004F50D73C4F84432D8
:10A93400C2E70323F6E7E3696364236AA4F84830B3
:10A9440012B1062384F83C30637983B194F852320F
:10A954006BB994F8543253B1022384F85030042173
:10A964002046FFF77EFE0028A6D10623DAE704235B
:10A97400D8E784F831309FE7D4F844122A4604F12A
:10A984005400FFF768FE38B994F8301094F8540076
:10A99400FFF763FE002892D0F8BD94F83100984781
:10A9A40090E70820F8E70388112B10B50C460AD06D
:10A9B400262B1FD0102B05D1C37B012B02D18388FA
:10A9C400A1F8483210BD0022838881F85222B1F8E0
:10A9D40048229A42F6D10B79002BF3D1012120466B
:10A9E400FFF7CFFE0028EDD0A36B002BEAD0BDE823
:10A9F40010401847037A013B012BE3D889780523DB
:10AA04000131B1FBF3F303EB8303C91AC9B2E6E7DF
:10AA1400704738B5044690F85400FFF720FE012330
:10AA240084F85232002384F8543284F850300621DA
:10AA34002046FFF716FE054638B9A1782046FFF7F1
:10AA4400A0FE10B1A36B03B19847284638BD75DF4B
:10AA5400704776DF70477ADF70477BDF704700000E
:10AA6400034B1A8882420CBF18460020704700BF6F
:10AA7400083C0020024B9B6903B11847704700BF94
:10AA8400EC3B002073B585B22846FFF7E9FF044686
:10AA940038B3174E027A337B9A420CD200F10A0182
:10AAA4002846FFF7D4FFF0B111281AD002B0BDE850
:10AAB4007040FFF7DFBF00230372337C43B13B21B7
:10AAC4002846FFF7C6FF30F0080301D0FFF7D2FF96
:10AAD400736933B100228DF80420ADF8065001A843
:10AAE400984702B070BD237A01332372F9E700BF9F
:10AAF400EC3B002037B50B46497A0F4A79B9D2E9C5
:10AB040001141D7A0246002D18BF21465868FCF72F
:10AB1400D7FC78B103B0BDE83040FFF7ABBF0021EC
:10AB24001972536933B10122ADF806008DF804207F
:10AB340001A8984703B030BDEC3B00204B88028845
:10AB44009A4212D842889A420FD380888B8840F266
:10AB5400F311884294BF021A421A9A4205D8084453
:10AB6400984234BF00200120704700207047000045
:10AB74000388122B70B5014659D004D8102B1ED06F
:10AB8400112B44D070BD502BFCD12F4BC288DB89D4
:10AB94009A42F7D1038A022BF4D186883046FFF714
:10ABA4005FFF05460028EDD001F1120000F063F9C3
:10ABB40038BB6868FCF7CCFC0028E3D009E0C37B11
:10ABC400012BDFD14FF6FF70FFF74AFF054620B98E
:10ABD4000420BDE87040FFF74DBF1C4A8E880680F4
:10ABE400002303721368C0F80A305368C0F80E30AB
:10ABF40010310A30FFF7A2FF134B6872DB89002B78
:10AC0400C0D129463046BDE87040FFF773BF808845
:10AC1400FFF726FF04460028B4D04068FCF798FCF0
:10AC240008B1FFF727FF4FF6FF732380AAE7868852
:10AC34003046FFF715FF05460028A3D008310A3037
:10AC4400FFF77CFF6872DCE7EC3B00201C3C002033
:10AC5400F8B5064648B305460FCD154F3C460FC41C
:10AC640095E8070084E807003068124C3C60B0B1F6
:10AC7400FFF7F1FEC0B9326813682360536863605C
:10AC84000D480E4A4FF6FF7303800D4B40F8043F06
:10AC94000021FCF703FC002818BF032004E0204631
:10ACA400FFF7DBFE0028EBD0F8BD0E20FCE700BF69
:10ACB400EC3B00201C3C0020083C002089AA020038
:10ACC400243C002073B50191019C06466CB100251B
:10ACD4002C46294601A8FCF7A4FD18B106EB440351
:10ACE40001349D800135142DF3D13046346002B017
:10ACF40070BD00002DE9F04703888488112B8CB0C7
:10AD040005463DD01A2B42D0102B19D1DFF8C08054
:10AD1400D8F80830DB430093D8F804106846FCF7F1
:10AD2400ACFD009901A8FFF7CDFF0DF1080900273C
:10AD3400019B9F4207D3132C12D90420FCF7F6F889
:10AD44000CB0BDE8F08739F802AB00260136514655
:10AD540008EB8600FCF75BFD1D2EF7D10137E7E712
:10AD640016482146FCF74AFD15482146FCF746FDE6
:10AD7400EB7B012BE4D013482146FCF73FFDDFE7D2
:10AD84000E4821460CB0BDE8F047FCF740BD037AFD
:10AD94000D481F2B4FEA131521460AD9FCF72EFD47
:10ADA400022D0A482146EDD00CB0BDE8F047FCF76F
:10ADB40025BDFCF72CFD05482146E3E74C3C00206B
:10ADC400483C0020503C0020543C0020583C0020CB
:10ADD400443C00201328014602D80248FCF721BD58
:10ADE40000207047483C002010B50446FFF7F2FFEE
:10ADF400002814BF2046142010BD70B50546164621
:10AE040008460AB90E2070BD00231360002DF9D046
:10AE14002B68002BF6D0EB8813F003040ED1FFF758
:10AE2400E3FFC0B214280BD02B7983420AD9EA88F5
:10AE34002B6800FB023030602046E4E70720E2E79D
:10AE44000520E0E70420DEE7AADF7047002301388D
:10AE54000B70042806D8DFE800F00306080A0C008B
:10AE640011230B7070472123FBE73123F9E71223E9
:10AE7400F7E72223F5E7008800F001007047F0B5FA
:10AE84008B7891B0012B0C4638BF01238DF80E301E
:10AE940005460B88ADF80C3000211646684603229F
:10AEA40000F01EFF607C6946FFF7D0FFA07C0DF127
:10AEB4000101FFF7CBFFE27B237B217D43EAC20341
:10AEC400227C43EA02139DF80220002922F0190291
:10AED40003F0190314BF02210121134361F3420358
:10AEE4001C22002109A88DF8023000F0F9FE637BD2
:10AEF40013F0300F15D002AF03220021384600F0C2
:10AF0400EFFEE07C0DF10901FFF7A0FF11238DF89E
:10AF140008309DF80A300E97012262F342038DF83F
:10AF24000A30637B8DF824301422A37B8DF82530FE
:10AF3400002104A800F0D4FE03AB0493A388ADF869
:10AF44001C30A368CDF814D01BB1E288ADF81820EA
:10AF54000893A369002B31D001AF032200213846A6
:10AF640000F0BEFEA3691A88ADF82C205A88ADF80B
:10AF74002E205A680D97187B0A923946FFF766FF10
:10AF8400A3690DF10501587BFFF760FFA3699A7A65
:10AF9400197A41EAC201DA7A9B7B41EA02119DF8EF
:10AFA4000620002B01F0190122F0190214BF02231C
:10AFB4000123114363F342018DF80610E36903B1E1
:10AFC4000C93334604AA09A92846FFF73DFF11B0A4
:10AFD400F0BD90DF7047A5DF7047B5DF7047000014
:10AFE4007FB50023ADF80810ADF80A106A4602A92F
:10AFF4000646ADF80C30ADF80E300093ADF80430D1
:10B00400FFF7E7FF054600B3114B124CE41AE408BE
:10B01400FCF7ACFF240444F0010403460E49324615
:10B024002046FBF706FDBDF80020BDF8023052EAC9
:10B03400030103D009492046FBF7FBFCBDF80420BB
:10B044001AB107492046FBF7EBFC284604B070BD53
:10B05400A8C40200E8C40200CACC020014CD020055
:10B0640053CD020080B14FF0F7130360FB2303714B
:10B07400F723C3801723038141F6FB3200230161C8
:10B0840043818281184670470E20704730B1A1F188
:10B094001703E02B04D80180002070470E2070476E
:10B0A4000720704713B5034680880C46B8B91A8840
:10B0B400242A00F09C8014D8112A74D0232A00F08A
:10B0C400A780102A3ED0A37A4BB1E1880020FFF775
:10B0D40082FF002840F0A2804FF48073638102B0A5
:10B0E40010BD3A2A68D0552AEDD1DB88C988A072F0
:10B0F400172B38BF17238B4228BF0B462381FFF73A
:10B104006CFF60B1FCF732FF4E4B4F4902464F488B
:10B114001B1ADB081B0443F00100FBF781FCE27AF5
:10B12400002AD0D12369002BCDD040F67721ADF889
:10B1340002202289ADF80010ADF8042069462046AB
:10B144009847C0E7DB7B0A790A73012B13D0022BE3
:10B1540014D0E18823898B4205D20020FFF73BFFFE
:10B1640070B90123E372217B637B8B42ABD2002055
:10B17400FFF736FFA7E70B88E380EAE74B88FBE796
:10B18400112802D10123A372EDE7FCF7EFFE2D4B4A
:10B194002F4902462D481B1ADB081B0443F001000B
:10B1A400FBF73EFCDFE7F723CB8017230B8141F647
:10B1B400FB3348818B8186E75B89CA88934228BF29
:10B1C4001346172B0A6938BF17230B8162B1C97A5A
:10B1D40051B140F67721ADF80010ADF80200ADF89A
:10B1E4000430694620469047002363816BE71A7A4E
:10B1F4000B694A73002B3FF466AF4DF67A218DF844
:10B204000500ADF80010ADF802008DF8042095E7B4
:10B21400197A237B994228BF1946A9E711283FF4DC
:10B224005EAFFCF7A3FE074B0949024607481B1A09
:10B23400DB081B0443F0010002B0BDE81040FBF73B
:10B24400EFBB00BFE8C40200DACD0200A8C40200CC
:10B25400A9CD0200B0DF704766DF704710B500214A
:10B2640004464088FFF7F8FF034608B9237210BD6F
:10B27400112801D10123F9E76368BDE8104018479C
:10B2840060B159B10378DE2B0AD00B684360DE232A
:10B2940003704FF6FF734380002070470E20704701
:10B2A4000820704728B10378DE2B04D141800020A8
:10B2B40070470E20704708207047F0B5054685B0EA
:10B2C4000C46002942D0002840D00B78DE2B3DD11B
:10B2D40082884B889A4204D10B7A13B10846FFF74F
:10B2E400BDFF2B88112B33D0512B0FD0012B2DD127
:10B2F4002B7A012B2AD1A9886288914226D1204633
:10B30400237205B0BDE8F040FFF7A8BFAE8863889C
:10B31400B3421BD1AF79022F18D1AD7B2B1F022B67
:10B3240014D800211022684600F0DAFC052D18BF5D
:10B334004FF4C0736946304618BFADF804308DF839
:10B344000070FFF787FF08B16368984705B0F0BD48
:10B354006388AA889A4204BF4FF6FF736380F5E7B7
:10B36400A8DF7047ADDF7047AEDF704762DF70471C
:10B3740070B505468AB00C46002962D0002860D01A
:10B384000388502B37D0572B72D0102B59D181887A
:10B394006069002601AA0196FFF72FFD08223146B5
:10B3A4000DEB020000F09CFC0223218AA888CDF852
:10B3B4000CD002AA0293FFF7D5FF002841D1A3695C
:10B3C400002B3ED00398FFF756FD002839D0019B8F
:10B3D4000BB101221A701822002104A800F080FC8D
:10B3E40002238DF81030AB88ADF81830019B05941A
:10B3F4000793A36923E08188606902AAFFF7FDFC33
:10B404001822002104A800F06BFCAB882189ADF858
:10B414001830EB88029A05949942079218D12E8A23
:10B42400022E15D16AB105F11200FFF724FD029B2B
:10B4340048B101221A708DF81060A3690BB104A8F9
:10B4440098470AB070BD187003238DF81030F4E7E4
:10B45400A2899A42F5D1A369002BF2D000228DF87B
:10B46400102005F1120208922A8AADF82420E6E79A
:10B474008188606902AAFFF7C0FC01460028E0D178
:10B48400029B1B78002BDCD0182204A800F028FCB7
:10B4940001238DF81030AB88ADF818300594029B69
:10B4A400A6E70000F0B53A4B8FB002AD04460A4659
:10B4B40003F1100C2F46186859682E4603C608334A
:10B4C40063453546F7D1002C5FD0002A5DD0136860
:10B4D400A36121463846FFF749FF002853D122468D
:10B4E400012512F8023B8DF8063001A92846ADF873
:10B4F4000450FFF735FF002845D10146202206A855
:10B5040000F0EEFB22460223ADF8183012F80C3B93
:10B514008DF81A30BDF824301E4E6088079623F447
:10B524004F6323F00F0343F440632B4306A9ADF8A4
:10B5340024308DF829508DF82A50FFF7A0FC10BB59
:10B544000146202206A800F0CBFB22460323ADF8D7
:10B55400183012F8043B8DF81A30BDF82430608896
:10B56400079623F4875323F01F0343F480532B439C
:10B57400ADF8243006A940F201138DF82950ADF836
:10B584002A30FFF77CFC0FB0F0BD0E20FBE700BFB4
:10B594001ECE0200F4000100F0B50F4687B0164637
:10B5A4001C46054618B3406901AA1946FFF725FC55
:10B5B400D8B94FF6FF739C421BD0019BCBB11B78CB
:10B5C400CBB13388F42B18D80146102202A800F01E
:10B5D40087FBAB88ADF8083002A901232046CDE9EA
:10B5E40004678DF80A30FFF7BFFE07B0F0BD0E20E8
:10B5F400FBE70520F9E70820F7E70720F5E710DF68
:10B604007047000013B5044609496846FCF779FC05
:10B61400019808B902B010BDD0E900212046904736
:10B6240018B16846FCF777FCF2E71120F2E700BF97
:10B634003CCE020013B5044607496846FCF761FC9A
:10B64400019B0BB902B010BD2046D3E900219047FD
:10B654006846FCF760FCF3E754CE02000B4991F80E
:10B6640016335A09EC231341DB0706D5084B9A68B5
:10B674003AB94FF480030B60704742F20200FBF7C3
:10B6840055BC1A6842F480021A60704700E100E079
:10B6940054320020F7B5194F3C7864BB184E01258D
:10B6A40020463570FFF7AEFF112821D02046FFF762
:10B6B400C1FF144B8DF80340186801900DF103008D
:10B6C400FCF762F8104901A8FFF799FF0446B0FAA5
:10B6D40080F0400938709DF80300FCF779F83CB914
:10B6E4000A4B34701C70FFF7B9FF2846FFF7A2FF1E
:10B6F400204603B0F0BD0824FAE700BFBD3C00209B
:10B70400BC3C002036CE02004D6F0200BE3C00203F
:10B71400014B1878704700BFBD3C002007B50849AD
:10B724006846FCF7EEFB019B13B903B05DF804FB1C
:10B73400D3E9002090476846FCF7EDFBF3E700BF30
:10B7440048CE0200FFF7EABF60DF704769DF704749
:10B7540061DF704730B5134DADF5017D4FF4FA74D8
:10B764000DF1020103A8ADF80240FFF7F1FF70B933
:10B77400294601A8FCF7C5FB029B002BF0D003A8C7
:10B78400D3E90021904701A8FCF7C5FBF4E705289D
:10B7940005D00DF5017DBDE83040FBF7C7BB0DF5C5
:10B7A400017D30BDDCD00200024B1B780BB1FFF7EA
:10B7B400D1BF7047BF3C002030B5054685B00C466C
:10B7C400002900F0B5805B4B0B600C22002101A81E
:10B7D40000F086FA01238DF8063022688DF80450B3
:10B7E400062301A92020ADF80830FFF7AFFF60B1B0
:10B7F400FCF7BCFB504B5149024651481B1ADB086D
:10B804001B0443F00100FBF70BF90C22002101A8F3
:10B8140000F066FA01238DF805302268002301A99F
:10B824004020ADF80630FFF791FF60B1FCF79EFBB6
:10B83400414B4449024642481B1ADB081B0443F0AF
:10B844000100FBF7EDF80C22002101A800F048FAF2
:10B85400F72322688DF8045001A92320ADF806309F
:10B86400FFF774FF60B1FCF781FB334B36490246A6
:10B8740033481B1ADB081B0443F00100FBF7D0F824
:10B884000C22002101A800F02BFA012022688DF877
:10B89400040001A9FFF75AFF60B1FCF767FB264BD0
:10B8A4002A49024626481B1ADB081B0443F0010000
:10B8B400FBF7B6F80C22002101A800F011FA4FF4AE
:10B8C400B0632268019301A9A120FFF73FFF60B193
:10B8D400FCF74CFB184B1E49024619481B1ADB089F
:10B8E4001B0443F00100FBF79BF80C22002101A884
:10B8F40000F0F6F99DF8043022686FF3000301A903
:10B90400A0208DF80430FFF721FF034668B1FCF74F
:10B914002DFB094B0F49024609481B1ADB081B047F
:10B9240043F00100FBF77CF80023184605B030BD56
:10B934000E23FAE7982A0020F8C4020060CE020021
:10B94400A8C40200A6CE0200F2CE020039CF020043
:10B9540085CF0200D6CF020073B505460668FFF70F
:10B96400F3FE2B68B34204461DD91A481A4B1B49EF
:10B974001B1ADB081B0443F002000190FBF74CF890
:10B984002B68174901983246FBF753F84FF0805360
:10B994002A68D3F80C31134901989B0203F1005330
:10B9A4009A1AFBF73DF82CB90F4B01221A70204666
:10B9B40002B070BD2046FCF7D9FA074B0B4902468A
:10B9C40004481B1ADB081B0443F00100FBF728F8AA
:10B9D400EDE700BFA8C40200F8C4020029D00200A9
:10B9E40058D0020089D00200BF3C0020B3D002002E
:10B9F4004BDF70471FB50E4C01A8FFF7F9FF70B974
:10BA0400214602A8FCF77DFA039B002BF4D0019891
:10BA1400D3E90021904702A8FCF77DFAF4E7052852
:10BA240004D004B0BDE81040FBF780BA04B010BDE8
:10BA3400F4D0020053EA020C61D02DE9F04BB3FAC2
:10BA440083F51E0007BFB2FA82F502FA05F403FA81
:10BA540005F41646C5F120051EBF22FA05F73C433E
:10BA6400203556EA044C4FEA144418BF0134A34667
:10BA74004FF00009C846904271EB030C39D30942D8
:10BA840007BFB0FA80F700FA07F6B1FA81F701FAB6
:10BA940007F6C7F120071EBF20FA07FC46EA0C068A
:10BAA4002037B6FBFBFC7F1B103F07F01F04C4F1DB
:10BAB40020060CFA04F42CFA06F644BF3446002699
:10BAC400202FA4BF2646002454EA060C08BF0124F4
