:1000000000000420BD020000E5020000E70200003D
:10001000E9020000EB020000ED0200000000000019
:10002000000000000000000000000000EF020000DF
:10003000F102000000000000F3020000F5020000E1
:10004000F7020000F7020000F7020000F7020000CC
:10005000F7020000F7020000F7020000F7020000BC
:10006000F7020000F7020000F7020000F7020000AC
:10007000F7020000F7020000F7020000F70200009C
:10008000F7020000F7020000F7020000F70200008C
:10009000F7020000F7020000F7020000F70200007C
:1000A000F7020000F7020000F7020000F70200006C
:1000B000F7020000F702000000000000000000004E
:1000C000F7020000F7020000F7020000F70200004C
:1000D000F7020000F7020000F7020000F70200003C
:1000E000F7020000F7020000F70200000000000025
:1000F00000000000F702000000000000F70200000E
:1001000000000000000000000000000000000000EF
:1001100000000000000000000000000000000000DF
:1001200000000000000000000000000000000000CF
:1001300000000000000000000000000000000000BF
:1001400000000000000000000000000000000000AF
:10015000000000000000000000000000000000009F
:10016000000000000000000000000000000000008F
:10017000000000000000000000000000000000007F
:10018000000000000000000000000000000000006F
:10019000000000000000000000000000000000005F
:1001A000000000000000000000000000000000004F
:1001B000000000000000000000000000000000003F
:1001C000000000000000000000000000000000002F
:1001D000000000000000000000000000000000001F
:1001E000000000000000000000000000000000000F
:1001F00000000000000000000000000000000000FF
:1002000010B5054C237833B9044B13B10448AFF350
:1002100000800123237010BD6C000020000000004E
:100220002006000008B5034B1BB103490348AFF398
:10023000008008BD000000007000002020060000C3
:10024000A3F5803A704700BF174B002B08BF134B34
:100250009D46FFF7F5FF00218B460F461348144AD1
:10026000121A00F0BFF90E4B002B00D098470D4B2F
:10027000002B00D098470020002104000D000D48FD
:10028000002802D00C48AFF3008000F087F920006E
:10029000290000F031F800F06DF900BF00000800FF
:1002A0000000000000000000000004206C0000209E
:1002B0008800002000000000000000000649074AF6
:1002C000074B9B1A03DD043BC858D050FBDC00F001
:1002D00075F8FFF7B9FF00002C06000000000020B1
:1002E0006C000020FEE7FEE7FEE7FEE7FEE7FEE724
:1002F000FEE7FEE7FEE7FEE770B50120094D00F0DE
:100300002DF845F001050026304600F00DF84FF4B9
:10031000FA744FF47A40A847013CFAD10136042E12
:10032000F2D1F0E7100600000A4B185C1F288ABFC4
:1003300009494FF0A04100F01F00D1F80435012217
:10034000824022EA03001340C1F80805C1F80C35C9
:10035000704700BF1806000000030050C20710B429
:100360000FD483070AD54FF0A0430C22C3F82C27E3
:10037000C3F83027C3F86027C3F864275DF8044B3F
:1003800070474FF0A04303224FF40051C3F83427C5
:100390004FF48044C3F83827C3F83C27C3F84027FC
:1003A000C3F808154FF480324FF40041C3F80845F4
:1003B000C3F80815C3F80825D3E700BF10B44FF001
:1003C00080414FF080530020C1F80C015F4AC1F812
:1003D0001001C1F83805D3F80404C2F82005D3F899
:1003E0000804C2F82405D3F80C04C2F82805D3F891
:1003F0001004C2F82C05D3F81404C2F83005D3F861
:100400001804C2F83405D3F81C04C2F84005D3F828
:100410002004C2F84405D3F82404C2F84805D3F8F0
:100420002804C2F84C05D3F82C04C2F85005D3F8C0
:100430003004C2F85405D3F83404C2F86005D3F888
:100440003804C2F86405D3F83C04C2F86805D3F850
:100450004004C2F86C05D3F83001D3F84444C2F824
:100460007045082824D04FF08043D3F80024D207E9
:1004700044BF6FF00102C3F80024354AD2F8883037
:1004800043F47003C2F88830BFF34F8FBFF36F8F10
:100490004FF01023D3F80022002A26DBD3F80432D1
:1004A000002B22DB2B4B2C4A1A605DF8044B704763
:1004B000D3F83421002AD6D12848294A294CC0F83B
:1004C0008C46FB20C2F81805D1F8E42ED3F8583238
:1004D000254822F00F0203F00F0313434FF400727C
:1004E000C1F8E43EC0F84026BDE7204A0123C2F827
:1004F0000435D2F80034002BFBD04FF0102312212A
:100500001A4AC3F80012D2F80034002BFBD04FF087
:1005100010231221154AC3F80412D2F80034002B1C
:10052000FBD000231149C2F80435D1F80034002B68
:10053000FBD0BFF34F8F06490D4BCA6802F4E0624F
:100540001343CB60BFF34F8F00BFFDE700C00040F7
:1005500000ED00E0000000200090D00300500040BB
:1005600000F00040488103000090024000E001409C
:100570000400FA0508B5074B044613B10021AFF398
:100580000080054B1868836A03B19847204600F045
:1005900031F800BF000000001C06000070B50D4DD2
:1005A0000D4C641BA4100026A64209D10B4D0C4C27
:1005B00000F022F8641BA4100026A64205D170BDED
:1005C00055F8043B98470136EEE755F8043B984749
:1005D0000136F2E76400002064000020640000207F
:1005E0006800002002440346934200D1704703F89C
:1005F000011BF9E7FEE700BFF8B500BFF8BC08BC77
:100600009E467047F8B500BFF8BC08BC9E467047D0
:100610000338FDD8704700000D0E0F1004000020B5
:0406200000000000D6
:080624001CFCFF7F0100000037
:10062C000090D0030000000000000000000000005B
:10063C0000000000000000000000000000000000AE
:10064C00000000000000000000000000000000009E
:10065C00000000000000000000000000000000008E
:10066C00000000000000000000000000000000007E
:10067C00000000000000000000000000000000006E
:0C068C0000000000250200000102000038
:04000003000002BD3A
:00000001FF
