:020000022000DC
:1060000000000420756302005D6302005F6302000C
:106010006163020063630200656302000000000028
:1060200000000000000000000000000067630200A4
:1060300069630200000000006B6302006D630200F0
:10604000719802006F630200419D02006F630200BD
:106050006F6302006F630200919B02006F63020096
:106060006F6302006F6302006F6302006F630200E0
:106070006F6302006F6302006F6302006F630200D0
:106080006F6302003D7102006F6302006F630200E4
:10609000D97102006F630200590103006F630200AF
:1060A0006F6302006F6302006F6302006F630200A0
:1060B0006F6302006F630200000000000000000038
:1060C0006F6302006F6302006F6302006F63020080
:1060D0006F6302006F6302006F6302006F63020070
:1060E0006F6302006F6302006F6302000000000034
:1060F000000000006F630200000000006F630200F8
:10610000000000000000000000000000000000008F
:10611000000000000000000000000000000000007F
:10612000000000000000000000000000000000006F
:10613000000000000000000000000000000000005F
:10614000000000000000000000000000000000004F
:10615000000000000000000000000000000000003F
:10616000000000000000000000000000000000002F
:10617000000000000000000000000000000000001F
:10618000000000000000000000000000000000000F
:1061900000000000000000000000000000000000FF
:1061A00000000000000000000000000000000000EF
:1061B00000000000000000000000000000000000DF
:1061C00000000000000000000000000000000000CF
:1061D00000000000000000000000000000000000BF
:1061E00000000000000000000000000000000000AF
:1061F000000000000000000000000000000000009F
:10620000354936480A1A02D0072291438D4634494F
:1062100034480A1A06D00722914381F309880222E2
:1062200082F3148830483149314A00F044F831484B
:106230003149324A00F03FF831483249324A00F0E1
:106240003AF832483249334A00F035F83248334997
:10625000334A00F030F833483349344A00F02BF821
:1062600033483449344A00F026F83448344900228F
:1062700000F02CF833483449002200F027F8334866
:106280003349091A082902DB002202604160314AC1
:1062900090471F481F49884205D00268043003B464
:1062A000904703BCF7E700208646EC46002000211B
:1062B000294A9047FEE7884207D0521A05D0037852
:1062C00001300B700131013AF9D17047884202D098
:1062D00002700130FAE770470000042000E003205C
:1062E0000000042000000420D02E030024220020FF
:1062F00040250020D4630200D4630200100703008D
:10630000D02E03002422002024220020980803001D
:1063100098080300980803009808030098080300F1
:10632000980803009808030098080300CE2E030085
:10633000EC310300402500204025002040250020AE
:10634000BC3A0020BC3A0020BC3A0020BC3A0020F5
:10635000BC5A00209D63020089B10200FEE7FEE7FF
:10636000FEE7FEE7FEE7FEE7FEE7FEE7FEE7FEE705
:10637000704700BF1048804710484FF0070188431E
:1063800085460F4880470F48016841F4700101605D
:10639000BFF34F8FBFF36F8FFFF732BF0A480B4930
:1063A0000B4A884207D0521A05D0037801300B708F
:1063B0000131013AF9D170477163020000000420F5
:1063C000CD92020088ED00E0840803001022002036
:0463D0002422002063
:1063D400F0B595B01D46164608460C4602F0B8FEC8
:1063E4001A9B0D93CDE9086500252B46082205A9C3
:1063F40020460A958DF82C500C9502F0C5FE079B9B
:106404000293069B03939DF814308DF8115003F00A
:106414000302012A1DD1BDF81420059DC3F3C20354
:10642400C2F383168DF81030B20008230EA920465B
:1064340002F0AAFEC5F3952508AB0093324602ABE1
:106444000EA9284600F0F0FB204602F085FE15B0A8
:10645400F0BD022AF8D1BDF81650C3F3C203C5F348
:1064640089158DF810300827082D2E4628BF0826D8
:106474003B4632460EA9204602F086FEAD1B08AB11
:1064840002AA31460EA8374400F032FC002DEBD1AD
:10649400DAE70000014B01221A70704781250020C1
:1064A4007047000070B50E4D06460FCD88B06C469F
:1064B4000FC495E80F00002E84E80F00094A0A482B
:1064C4004FF0060308BF00226946009303F05CF90D
:1064D40008B100F085FD054B1E7008B070BD00BF0B
:1064E400980803009964020024220020402500201B
:1064F40007B5044B0093044A4023FFF769FF03B038
:106504005DF804FB116502004125002038B50D48F3
:106514000D4C0E4D002323700378EB5CD2B263B1B3
:10652400043004F095F808B100F05AFD084B1A78CD
:1065340012B12378002BFBD038BD0C3003F05AFE87
:10654400F1E700BF2422002081250020882E0020AE
:106554004025002008B50848084A0378D35C3BB1BD
:10656400043004F015F8BDE808400020FFF79ABF96
:106574000C3003F0DFFDF6E724220020882E0020F3
:106584000120FFF78FBF000008B5FFF7F9FF0448AB
:10659400042100F0B3FA034B01225A7108BD00BF75
:1065A4007408030038220020037813F0040216D084
:1065B40003F00303012B03D0022B09D00120704701
:1065C4000A6800880232C0F3831002440A60F5E7C7
:1065D4000B684288023303EB92130B60EEE710461C
:1065E400704700002DE9F04FDFF830A187B00F4667
:1065F40000230446861C0DF1070015468DF807306C
:1066040000F0DEFFDAF800103960DAE901321344F1
:1066140001335B1A0AF21C470AF583690AF214482B
:10662400B3421CD30020002D73D004F00F039B0150
:1066340043F0050363F30F00DAF80020DAF80830BA
:106644001340033332444AF823009DF80700CAF884
:10665400002000F0D9FF012007B0BDE8F08F012130
:10666400384601F0E8FF484602F000F8404601F0E1
:10667400FDFFDAF80400DAF808B0029000EA0B0033
:1066840003300AEB800002A9FFF78EFF029B50BB88
:106694000BEA03020AEB820203F1020CD2680392B2
:1066A400013303EA0B0B0AEB8B0B02F00302012A02
:1066B400DBF80C10CDF808C023D0022A16D083468C
:1066C400404601F0D6FF10B1029BCAF80430594687
:1066D400384601F0B0FFDAE901231344DAF8002068
:1066E40001339B1A9CE70BEA0300C9E7BDF80E309F
:1066F400C3F3891303334FEA114B0CEB9303029357
:10670400DEE7BDF80C30C3F383134FEA114B634447
:10671400F5E7A40544F006008EE700BF54260020E8
:106724000B4B0C48FF2210B59A600022C3F81824C2
:10673400C3E90022C3F8142483F8202402F0C1FC26
:10674400044610B9044802F069FD204610BD00BF9C
:1067540054260020A0070300EC08030030B50A4CBF
:1067640071B10A4A0A49121BD20800239A4201D184
:10677400002030BD31F82350854202D00133F5E7C3
:10678400034654F83300F4E7B40703007408030025
:1067940024220020094B013903EBC000032909D846
:1067A400DFE801F00A02040604207047007970470C
:1067B400407970470020704702207047B4070300F7
:1067C400034BD3E90030C31A58425841704700BF05
:1067D400542600202DE9F04387B0FFF7F1FF064669
:1067E400002840F0FE80804CC4F81804BFF34F8F9B
:1067F4006368A56802932B40033304EB830002A96A
:10680400FFF7D2FE029B18B1D4F81824002A62D0F4
:1068140005EA0302991C013304EB82022B4004EBCA
:106824008303D268DB68049302F00303022B039210
:10683400029163D1BDF80E306C48C3F38917502F11
:10684400B84628BF4FF0500808F1080168F38F13C9
:10685400C1F30901ADF80E3002F04BFC06460028E6
:1068640000F0AA8002F074FC0023082203A9304639
:1068740002F080FC029925EA01020132B8EB820F92
:106884004FEA820333D95FFA88F863B32940DDB253
:10689400A8EB050803315FFA88F9A846544D04EBC8
:1068A400810108234246304602F064FC3DB108F100
:1068B4000803DBB24A462946304602F05BFC029BE1
:1068C400033703EB97070297D4F81834002B4BD106
:1068D400D4F810545BE022689A428CD86260304647
:1068E40007B0BDE8F08342491D469946D9E72940DF
:1068F40003310823424604EB8101DDE7012B5BD120
:10690400BDF80C303948C3F38311062928BF06218A
:1069140061F38913023101F00F018900ADF80C30E5
:1069240002F0E7FB0646002846D002F011FC0023E3
:10693400082203A9304602F01DFC0027BDF80C20F4
:10694400C2F38312BB00974203F10803BCD202993D
:106954004A1C29400331029204EB8101042230468F
:1069640002F008FC0137E9E7304602F0F5FBFFF7D7
:1069740027FF80F00100C6B2B1E7EB685B7923B171
:106984002B6831461B6828469847EB681D68002D24
:10699400F3D1304602F0E0FB0DF107008DF807500B
:1069A40000F00EFED4F818340BB9029B63609DF816
:1069B400070000F029FEDAE7D4F8104454B90D4B6F
:1069C4000D480E49C01AC008000440F0020000F04F
:1069D40063F8CCE7236820469B689847E3681C6803
:1069E400ECE700267BE700BF54260020A007030045
:1069F40060260020B4070300DC070300D508030069
:106A04002DE9F74F224E04460F46924601A9012272
:106A14001846D6F808909B46FFF7E4FD20B3019D85
:106A24004FF00008AA1CD84508EB020126D11948EA
:106A3400002101F0B9FD80F31000000440EA144085
:106A4400E4006B1C04F0380403EA090305EA0905B1
:106A540044F0010406EB8303033544EA881444EA52
:106A64008724D86046F8254096F820341BB1FFF7F8
:106A7400B1FE0028FBD103B0BDE8F08F09EA0101A3
:106A840006EB81015AF82830CB6008F10108CAE707
:106A940054260020702A002000231A46FFF7B0BFB6
:106AA40007B50123019201AAFFF7AAFF03B05DF81D
:106AB40004FB07B5CDE9002302236A46FFF7A0FFD4
:106AC40003B05DF804FB1FB5CDE90123069B0393D6
:106AD40001AA0323FFF794FF05B05DF804FB1FB57B
:106AE400CDE90023069B0293079B03936A46042384
:106AF400FFF786FF05B05DF804FB000030B50F4CCE
:106B0400D4F8102403460020114631B9D96808711D
:106B14004AB9C4F810340A6030BDC9680D79854299
:106B240006D00968F1E7D26814680C601360F3E7D3
:106B340001300A28E8D14FF0FF30EDE75426002059
:106B440038B5084B0125D3F8104483F8205404B910
:106B540038BDE3685D71236820465B689847E36845
:106B64001C68F4E75426002030B5C38885B0044679
:106B74000D4633B1144A00921449154A284601F0CF
:106B8400DBFD217A05291DD0637A4BB1A088FFF77C
:106B940001FE104B104953F82020284601F0CCFD8B
:106BA400227A0E4BA08853F8222003920021FFF78B
:106BB400D5FD039A0A490346284605B0BDE830408E
:106BC40001F0BABD05B030BD180903000009030087
:106BD400F80803008409030006130300A80903004E
:106BE4001D09030007B503460846197A052911D083
:106BF4005B7A2BB1094A0A49019001F09DFD019885
:106C04000849019001F098FD019803B05DF804EB88
:106C140001F087BD002AF8D0F2E700BF180903008D
:106C240006130300150903002DE9F04385B01F4640
:106C34000C9D002395F80C902B7306460C46904649
:106C440029463846FFF790FFB8F1060F09D8DFE868
:106C540008F00412181F283340003146284601F07A
:106C64006BFD002229463846FFF7BCFF85F80C90DF
:106C740005B0BDE8F08322683146284601F05CFD8A
:106C8400EFE7D4E900233146284601F055FDE8E753
:106C9400A36800933146D4E90023284601F04CFD53
:106CA400DFE7E3680193A36800933146D4E9002346
:106CB400284601F041FDD4E723690293E368019378
:106CC400A36800933146D4E90023284601F034FD3B
:106CD400C7E76369039323690293E3680193A36895
:106CE40000933146D4E90023284601F025FDB8E796
:106CF40008292DE9F74F80460E4617461C4639D819
:106D0400002593F80C901D7319461046FFF72CFFCD
:106D1400DFF880A0DFF880B0AE422ED918F8052045
:106D24005946204601F008FD0135082DF4D11849D3
:106D3400DFF868A0DFF868B0204601F0FDFC00250C
:106D4400AE421FD918F805200192104609F016FC2E
:106D54000028019A594608BF2E22204601F0ECFC77
:106D64000135082DECD1012221463846FFF73AFFC0
:106D740084F80C9003B0BDE8F08F5146204601F032
:106D8400DBFCD1E75146204601F0D6FCE8E700BF22
:106D9400310903002D090300270903002F0903000B
:106DA400330903002DE9F84F2F4F304E4FF0000800
:106DB4002F4B1B785FFA88F5AB4201D8BDE8F88FFA
:106DC400D7F8009019F835000124A0F12002C0F191
:106DD400200304FA02F224FA03F31343D6E900125F
:106DE40004FA00FC01EA0C0B02EA030E5BEA0E0E45
:106DF40009EBC50A35D021EA0C0122EA0303C6E9EE
:106E0400001302F0B5FE024619F83500194DA0F141
:106E14002003C0F1200124FA01F104FA03F30B4327
:106E2400D5E900C1C0F120050B40A0F1200122FAF0
:106E340005F5844002FA01F1294304EA0C0402FA3C
:106E440000F58B4208BFAC420BD1DAF8043043B1F1
:106E54009AF801104C1E614261418D1A69426941E0
:106E6400984708F10108A3E7482B0020402B002095
:106E7400102B0020382B0020F8B507461E4800F0E0
:106E84008FFBB8BB01251D4EA7F12004C7F12003D9
:106E940025FA03F305FA04F41C43D6E90023BD40A4
:106EA40002EA050003EA040101431DD1384602F059
:106EB4005FFE134BD3E9001288B129432243C3E98F
:106EC4000012D6E900232A432343C6E900230D4BCD
:106ED400094819680022BDE8F84000F019BB21EA0E
:106EE400050122EA0402EAE722EA050223EA04038E
:106EF400C6E90023F8BD00BF182B0020402B00205A
:106F0400382B0020142B0020042A2DE9F3410546D8
:106F14000C4616463BD902F053FDE8B11D4B1E4901
:106F24001D601E4BDFF888801C701D4B00221E6004
:106F34000023C1E900231B49C1E90023013CE4B259
:106F440000260327FF2C0ED1174A1848002102B04F
:106F5400BDE8F04100F0CABA02F0F8FC0028DDD028
:106F640002B0BDE8F08105EBC40315F834009B784A
:106F74008DF80660424601A98DF804708DF805303D
:106F840002F028FD013CE4B20028DBD0E8E707204A
:106F9400E6E700BF482B0020382B0020102B0020F0
:106FA400142B0020402B0020A96D0200BC09030013
:106FB4007D6E020070B5084D084E00242B789C426B
:106FC40001D3002070BD3368012113F8340002F0AE
:106FD40081FD0134F2E700BF102B0020482B002074
:106FE4001FB50021039001AA44F20100CDE901116B
:106FF40000F004F805B05DF804FB000038B572B683
:10700400FFF79EFDFFF7E6FB0028FBD1104B114C68
:10701400114D1249E41AE408240444F00100FFF776
:107024003BFDD5F8F030DB0700D500BE0C4944F039
:107034000200FFF731FDBFF34F8FEA68094B02F4FA
:10704400E0621343EB60BFF34F8F00BFFDE700BF67
:10705400B4070300DC07030000ED00E0C0090300EF
:10706400CC0903000400FA05094B5A7899780132D7
:10707400D2B2914208BF0022197891421FBF027018
:107084005878182202FB003014BF043000207047E7
:107094004C2B002073B5054600240DF107000E4665
:1070A4008DF8074000F08CFA0DF10600FFF7DCFFC5
:1070B40090B10670094B9DF8062045605A709DF802
:1070C400070000F0A1FA24B9054B4FF48012C3F86D
:1070D4000021204602B070BD0424F0E74C2B0020B0
:1070E40000E100E0024B4FF43C6043F00103184719
:1070F400E009030038B50C4B0C4C4FF40032C3F8D4
:10710400802001254FF48033C4F84833C4F8083391
:107114006560FFF7E7FF064BA56000241C60FFF7DE
:10712400E1FF044B1C7038BD00E100E00010014099
:10713400682C0020592C0020F8B51F4B1F491B68F0
:107144000025C1F84051C1F84451C1F84851C1F873
:107154004C51C1F80051C1F804514BB3D1F8044566
:1071640017490968641A24F07F442F461A68A2421A
:1071740009D8A41A15441A7CDE691AB1D3E905208A
:107184001F749047AEB90F4A0F4B11781B788B428E
:1071940005D10133DBB2022B08BF00231370127830
:1071A4000A4B43F822500A4B4FF48012C3F80021D3
:1071B400F8BD3346DAE700BF6C2C00200010014014
:1071C400682C0020652C0020642C00205C2C0020FE
:1071D40000E100E02DE9F04FA14AA24913780978B3
:1071E400A14D994285B03CD00133DBB2022B08BFDC
:1071F400002313709D4912789D4B0F6853F82200A9
:107204003B1823F07F4300220B602B68164614467C
:10721400944613B942B12B6006E0196881420ED935
:1072240002B12B60091A196001272B68DFF848A204
:1072340001934FF00008BEB9DFF844B260E0401A91
:107244000C44D968D3F81CE0C3F800C031B13A1932
:1072540022F07F42C3E90121DE611E46734601220A
:10726400D7E700263746E0E73446F6697F4B606887
:107274001B68DFF810C2A168C21A22F07F4262457F
:1072840000F2A6800A442260012222742A680023A4
:10729400C4E90133E361002A40F0A3802C60CAE70B
:1072A4009BF802105A1CD2B291428BF8002004BF02
:1072B40000228BF80020182202FB03B32A681979F4
:1072C4009C68022975D003297FD0012918D1207C1C
:1072D400B0B9D3E90312A2605A69E2609A69654BB6
:1072E400A2611A78002A18BF01466160BEE78C4289
:1072F40000F094808946C9690029F8D100232374D9
:107304009BF800309BF801209A42C9D12B68B8F150
:10731400000F04D1019A9A4201D1002F43D0002BCF
:1073240079D0D3F800A0544D504BD5F804751C689F
:10733400DFF854813E1B98F8003026F07F46033670
:107344009BB94FF48033C5F84433C5F804334B4B31
:107354004FF400324FF00109C3F880211A60C5F8D8
:107364000090FFF7BFFE88F80090B2452CBF54444C
:10737400A41924F07F44C5F84045D5F80435DB1B37
:1073840023F07F43E41B033324F07F44A3420AD950
:10739400D5F80435C5F84035FFF7A4FE374B4FF454
:1073A4000032C3F80021334B00221A7005B0BDE847
:1073B400F08F114691469FE71174D2690123002A88
:1073C400FAD1002B9CD02A609AE700231946F6E7ED
:1073D4001B1A23F07F438B4234BFCB1A0023236054
:1073E40052E721681368994213D85B1A1360E2616B
:1073F40054E7091AD8691A4638B10346186888420E
:10740400F7D3401A1860184613462160E061DC6126
:1074140011E71346F2E7FFF76DFEC4E74C4511D1BF
:10742400D3692B6073B9DFF844E00120CDE902127F
:10743400CAF80800CEF800300E4B1870FFF752FE61
:10744400DDE902120B68C969C9F81C1011B108689A
:1074540003440B602B68934218BF4FF001084DE7BB
:10746400642C0020652C00206C2C0020682C00204B
:107474005C2C0020582C00200010014000E100E0AA
:107484004C2B0020FEFF7F00592C002008B5FFF78D
:1074940031FE104B00200B2218809A700E4B18609E
:1074A4000E4B18700E4B18700E4B4FF48012C02107
:1074B400C3F8802183F814131A6002F18042A2F504
:1074C4006F22C2F8080583F81113074BD2F804257C
:1074D4001A6008BD4C2B00206C2C0020642C00206A
:1074E400652C002000E100E0682C0020074B9B780D
:1074F4004BB132B128B10368187C20B959745A6170
:107504007047072070470820704700BF4C2B0020AD
:107514002DE9F743DFF8848098F8023005460E46DB
:107524001746ABB3A0B3042930D9436983B3437C72
:107534000024012B0DF107000CBF8946A1468DF8EC
:10754400074000F03DF80DF10600FFF78DFDD8B1BE
:10755400012303700F4B4560D3F80435C0E9049749
:10756400C0E902369DF8063088F801309DF807001E
:1075740000F04AF824B9084B4FF48012C3F80021F4
:10758400204603B0BDE8F0830424EFE70724F7E7BF
:107594000824F5E70010014000E100E04C2B002036
:1075A400064A92783AB130B1426922B1002202749B
:1075B4000221FFF76FBD0820704700BF4C2B00204D
:1075C40070B5EFF3108672B60C4A946801239CB927
:1075D40093600B4B0B4DD3F8801029401160C3F816
:1075E4008050D3F8841051604FF0FF32C3F88420E8
:1075F400047006B962B670BD0370FAE7702C0020FF
:1076040000E100E0FC06FFBD084B9A6810B55AB1D2
:1076140050B9EFF3108172B6054A1C6814605C68B7
:107624005460986001B962B610BD00BF702C002090
:1076340000E100E070B5064D0646002455F8043B11
:107644000BB1304698470134042CF7D170BD00BF0C
:10765400882C00204388033300EB8303994209D329
:1076640082884FF6FF739A4206D00088B0FA80F001
:10767400400970470220704701207047033080B2F0
:1076840040F2FD33984230B51FD8124B1A783AB9FC
:107694001C895D892C440444A4B2B4F5806F0AD3D8
:1076A4001A7DA2B99A8BDC8B2244024492B2B2F5C1
:1076B400806F0CD201220A801446142202FB043388
:1076C4005A8910445881002030BD0920FCE7072066
:1076D400FAE700BFBC2C00200B4A0C495388142045
:1076E40000FB0311CB6833B90420496810700122F0
:1076F400074801F0AFBA07490523137002238B80B2
:10770400012209680023F3E7A02C0020BC2C0020F0
:1077140010220020842D002007B500230549009382
:10772400054A09680548082301F0FAF903B05DF831
:1077340004FB00BF842D0020F40903001022002064
:1077440007B5002301460093034A0448082301F0C7
:10775400E7F903B05DF804FBEC09030010220020F4
:1077640013B500230C4600930146084A0848042335
:1077740001F0D6F938B9074B142101FB0431012378
:107784000B7402B010BD0E20FBE700BFE809030034
:1077940010220020BC2C002037B50A480A4B42684E
:1077A4009C88196853880325033305709BB2002015
:1077B40000909B0001EB8401044801F0B1F903B08F
:1077C40030BD00BFA02C0020842D002010220020FA
:1077D40010B50146044800F01BFE1C22044600219B
:1077E40008F031FF204610BD702D002068B10268FA
:1077F400084B9A4209D14068074B984207D001339D
:10780400984214BF032001207047032070470020D2
:10781400704700BFDEC0ADDEFE011EF12DE9F04170
:107824000D460223154F2B80164600F5805100F1BA
:1078340008044FF001088C420ED2236801330BD0A8
:107844002046FFF707FF48B10EB186F800800228F2
:1078540009D14FF480632B80BDE8F081A3683A68B6
:10786400934200D93B602B886288033313442B80F6
:107874006388033304EB8304DDE700BFB42C0020EA
:1078840038B5144B14220D4602FB00302B684468B3
:1078940004F58051A3B15C88033403EB84048C4267
:1078A40015D22368013312D02046FFF7D3FE0128F6
:1078B40008D002280BD00028F1D12C60012038BD5B
:1078C4000834ECE76388033304EB8304E7E7002020
:1078D400F5E700BFBC2C0020426873B504460D4692
:1078E40062B3234BD9688A4228D31B699A4225D8AC
:1078F40012F0030322D11F490089098988421DD14E
:1079040020689168884219D11B4841688A4203D98A
:1079140001F580518A420DD381698A420CD901F55F
:1079240080518A4208D201222A80B3FA83F04009A6
:1079340002B070BD1A46F7E70A23F6E700262E8048
:107944000196288801A9FFF79BFF30B92B880133E2
:107954009BB2012B2B80F3D9EAE7019B226899683B
:107964009142EED16360034B1B892381E0E700BFA2
:1079740010220020A02C0020BC2C00202DE9F8436C
:107984001C461C4B1B7806460F4615466BB372B358
:107994006CB3DFF868804FF01409A388012B01D978
:1079A4000A2020E009FB03F318F803302BB9A08860
:1079B4002146FFF765FF20B92060A3880133A38027
:1079C400EBE723681EB1998832889142EFD11FB149
:1079D40019883A889142EAD19A68C5E90023064B8E
:1079E4001B892B810020BDE8F8830220FBE70520DA
:1079F400F9E700BF982C0020A02C0020BC2C00200C
:107A040008B5074B5888191DFFF73AFF18B1BDE8B0
:107A14000840FFF7C1BEBDE80840FFF75DBE00BFE8
:107A2400A02C00202DE9F0479F4FDFF8A08288B0FA
:107A340006463B6823B99D48414600F023FD386063
:107A44003D6829784B1E052B07D8DFE813F01F008B
:107A540077007700070107015C010F24142200213D
:107A640003A808F0F0FD41F61D539C4208BF002412
:107A74003B6804941A78023A042A00F2F981DFE898
:107A840012F0DA01E60108021002170226B1884B4F
:107A940000225A600124E1E72B79032B1CD8DFE88C
:107AA40003F014022934834A1378022B19D0137D6E
:107AB400022B4FF0010316D114214B43D11800209F
:107AC400D0544868FFF73CFE03E001232B71FFF715
:107AD40023FE002800F0BD80754B00225A600E245E
:107AE400BCE70023E8E7724A13700023536041F6B1
:107AF4001D54B3E770497148002302222B718A8018
:107B04000968012201F0A6F8E3E76B4C00262E7108
:107B14002068FFF715FE6A4BDFF898C15B8825687B
:107B2400142253430CEB03020CF8036051685560B4
:107B3400A588158102222160A280CAE7B5F814A0A5
:107B4400AA7DDFF87091AEB1022AEB8806D9142120
:107B540001FB0A91DA1C088902440A81142202FBFF
:107B64000A99C3F57F43B9F80A20FD331344A9F8F1
:107B74000A308FE7142303FB0A9318895C6804EB2B
:107B84008004062A68D8DFE802F0274D35431D59E2
:107B9400040041F61D54AA7DEB88022A06D914215B
:107BA40001FB0A91DA1C088902440A81142202FBAF
:107BB4000A99C3F57F43B9F80A20FD331344A9F8A1
:107BC4000A304BE73F48404900234360AB690360F8
:107BD400FFF782FE002859D00223AB7500230093DF
:107BE4000423EA182146354800F09AFF002830D0D3
:107BF4000E24D0E72B69002B14BF03230123AB759C
:107C04000023009305F10C02042304F10801EAE7C0
:107C14000123AB750022EB8800922A699B0004F1D2
:107C24000C01E0E703290CBF05230623AB750023F1
:107C34000093042305F10802E118D4E70623AB7589
:107C4400214B19881F4B5868FFF78AFD044600280A
:107C5400A1D108B0BDE8F0870F249CE7002E7FF483
:107C640019AF2B79012B33D0022B3FF440AF002BFB
:107C74007FF4F3AE02232B710DF10A01EB68039339
:107C840003A8CDE90466FFF727FE08B90A24E5E650
:107C94000498BDF80A108388EB8003882B81FFF7D2
:107CA4005FFD044625E000BFB82C0020702D0020A5
:107CB400982C0020BC2C0020842D002010220020B1
:107CC400A02C00207C2C0020902D0020B02C002023
:107CD400794B03AA3146A81DFFF750FE764B0446A4
:107CE40058B999880498FFF73BFD04460A2C3FF4E1
:107CF400FEAE002C7FF4B2AEABE708223146184644
:107D040008F0A1FCF2E7002E7FF4C4AE6B4B1A7BA3
:107D1400B2B11E731A78013A062A3FF69EAE01A14B
:107D240051F822F0CF7D0200F57D0200137E02009F
:107D3400197E02005F7A02001F7E0200317E02007B
:107D44001A78072AE6D801A151F822F0717D0200C1
:107D5400197D0200197D0200977D0200AB7D0200AF
:107D6400CB7D0200CB7D0200937D02001A89544929
:107D740001321A8100225A801A730A78B2FA82F206
:107D840052099A720A7DB2FA82F25209DA72012217
:107D940007E04C4958688A884088033202448A8044
:107DA40002221A70B6E75C88454A4649142505FB49
:107DB40004220868546850608888108102228A80EE
:107DC4000C600622EDE70722EBE79A7A32B9DA7AF9
:107DD4008AB900221A705A805A6088E6384900220B
:107DE4009A72CA68002AF2D1097C0029EFD05A801D
:107DF400FFF706FE55E70022DA72314A116A0029BC
:107E0400E7D192F82420002AE3D00122EFE7FFF71C
:107E1400C3FC46E7FFF760FC43E75A88284B14216C
:107E240001FB02335868FFF78BFC3AE700225A60E3
:107E3400FFF772FC35E701228DF80C201A89ADF8A2
:107E440018209A88DB68ADF81A20059310E0022206
:107E54008DF80C201A89ADF818209A88ADF81A20EC
:107E6400DA689B7D05929A1F534253418DF81C306A
:107E740003A8FFF7DFFB0026414613483E6000F0ED
:107E84002CFB1248012100F0E2FB00287FF4D1AD65
:107E9400DFE603228DF80C20DA88ADF818201A8961
:107EA400D0E704228DF80C20DB88ADF81830DFE72A
:107EB40005238DF80C30DBE7942D0020A02C002046
:107EC400BC2C0020842D0020702D0020802D00204B
:107ED4004068FFF7A7BD000008B50548012100F080
:107EE4009EFB18B9BDE80840FFF79CBD08BD00BF64
:107EF400802D00202DE9F3419846354B1B7806462A
:107F04000D46002B5BD000295BD009884FF6FF7328
:107F1400994258D06B88002B55D06B689B0754D17D
:107F24004AB92F890DF102013846FFF7A7FB30B19A
:107F340002B0BDE8F08113885788ADF8023001A87B
:107F4400FFF746FC044658B9BDF80220214B142122
:107F540001FB023358890338C01B58810820E7E726
:107F640080F8008000238375BDF8023083826B683B
:107F740003610121184800F05EFB2B882381B8F1CE
:107F8400030F6B88A38004BF0423A3754FF000057F
:107F940008BF3368E06008BFA3611048E7806581CB
:107FA40001A900F05FFA36B1E36833600C4B7560E9
:107FB4001B89B5723381FFF78FFF0020B8E70220D9
:107FC400B6E70520B4E70420B2E70320B0E700BF1A
:107FD400982C0020BC2C0020B42C0020702D0020F4
:107FE400A02C002008B5034607480268042A08D0DC
:107FF4000168064A42F82130012100F01CFB0020F0
:1080040008BD0C20FCE700BF8C2D0020882C00202C
:108014002DE9F04F89B01422002103A808F013FBC6
:10802400724B1B7803F0FF0201923BB103A8FFF7E8
:1080340001FB0026304609B0BDE8F08F6B4B181DDC
:1080440000F011FB0028F4D14FF010234FF08052C0
:108054005B6911695269DFF8ACB1581C08BF02FBB7
:1080640001F3CBF810306249A3F54053002258467F
:10807400CBF80C3000F022FD06460028DAD11C2390
:108084005C495D48DFF880A1DFF880818C2200F034
:108094008AF90323B146354600933446DBF80C7065
:1080A4004F443846FFF7A2FB012839464AD003283B
:1080B40015D0002835D11421614308EB010208F8DA
:1080C4000100576001F1100208314244414438462E
:1080D400FFF7A4FB45F002050134A4B221E007F543
:1080E40080520868013074D104319142F9D1DAF830
:1080F40000203AB902220123CAF80070AAF8042029
:1081040001930CE014226243022008EB020108F8F8
:1081140002003A4A4F60548001340881A4B245F009
:10812400010509F58059B9F5405FB7D1009B012BD2
:1081340098BF0025EDB2022D02D0062D20D045BBFC
:108144000B2677E7019B63B11422624308EB02011B
:10815400022008F802000134DAF800204A6008819D
:10816400A4B200222649CAF800703846FFF756FB2D
:10817400BAF80420022A0CBF042208221543D0E7CF
:108184001A4A0123137003A800235360FFF752FA1D
:1081940050E702A8FFF71CFBC8B10123013D03709F
:1081A4000A2D09D8DFE805F00608060807080708BD
:1081B4000F110F000023037102A90F4800F052F9B8
:1081C400FFF78AFE36E70323F5E70223F3E70826E1
:1081D40030E7009B5A1E93B21422624308EB02015B
:1081E40000934F60032108F8021075E7982C0020D3
:1081F400E80B0300E42C0020702D0020A02C0020AC
:10820400882D002010220020842D0020BC2C00206A
:1082140073B50D460446C8B1C1B10DF10601FFF7AF
:108224005BFBA8B1BDF806300A486668142202FB5D
:10823400030001210C3000F0FEF963682E600C335A
:108244006B600123A372002002B070BD0520FBE720
:108254000A20F9E7BC2C002013B50446A8B10DF19F
:108264000601FFF739FB90B1BDF806200A4B142133
:1082740001FB0233DA6862B1A27A52B1DA680020F3
:10828400013ADA60A07202B010BD0520FBE70A20B3
:10829400F9E70620F7E700BFBC2C002002230022E8
:1082A400FFF728BE18B103230022FFF723BE0520E1
:1082B40070470000104B1B7813B50446ABB14FF662
:1082C400FF73984213D001A8FFF782FA88B10523FF
:1082D400037001230371C48001A9084800F0C2F8A7
:1082E400FFF7FAFD002002B010BD0220FBE70420D6
:1082F400F9E70820F7E700BF982C0020702D002034
:108304000E4B1B7807B5A3B101A8FFF761FA90B132
:108314000623037001A90A4800F0A4F8094B1A784F
:108324000AB101221A73FFF7D7FD002003B05DF8EC
:1083340004FB0220FAE70820F8E700BF982C00208D
:10834400702D0020A02C002007B5ADF80600ADF874
:1083540004100DF1060001A9FFF710FB03B05DF84E
:1083640004FB07B51346ADF806000A4600200DF1DC
:108374000601FFF703FB03B05DF804FB07B51346E2
:10838400ADF806000A460DF106000021FFF7F6FAE3
:1083940003B05DF804FB20B119B103680B60002041
:1083A40070470520704710B561B1B2FBF3F403FBCD
:1083B4001424A4B244B9C0E9001484608281C38146
:1083C400204610BD0E20FCE70920FAE782B050E8F1
:1083D400022FC188B2EB324F4FF0000317BF92B2A5
:1083E40041EA014142EA014104E04268B2EB324F02
:1083F40008BF012340E80212002AE8D18DF80730B3
:108404009DF80730002B0CBF1120002002B07047EC
:1084140037B550E8013F9DB2C48925448489A542FB
:1084240028BF2D1B0489A54202BFBFF32F8F002252
:1084340007E0C5EA030540E80154002CE9D14FF0F8
:1084440001028DF803200193019A0A609DF803103C
:1084540001F0FF0321B1006810FA82F003B030BDCF
:108464001846FBE70A884B889A4209D150E8012F45
:10847400C2EA024240E80123002BF7D101207047F1
:108484000020704737B550E8023F1FFAA3F5C488AF
:10849400A54202BFBFF32F8F00220DE0C4892544FB
:1084A4008489A54228BF2D1BC3EA054540E8025430
:1084B400002CE8D14FF001028DF803200193019ABA
:1084C4000A609DF8031001F0FF0321B1006800EB7E
:1084D400124003B030BD1846FBE70A884B889A4225
:1084E40009D150E8022FC2EA224240E80223002BBD
:1084F400F7D1012070470020704701F01F024B099B
:108504000121914000EB830000F065B84B0910B5E0
:1085140001F01F040121A14000EB830000F04FF89B
:10852400E04000F0010010BD01F01F0301229A4059
:108534004B0900EB8300D14300F065B84B0901F00F
:108544001F0150F82300C84000F0010070472DE9D6
:10855400F0474F1E7F0980460E460137002558F824
:10856400254008EB8509E44394FAA4F4B4FA84F4AE
:108574004FEA451A202C06D10135AF42EFD83446D4
:108584002046BDE8F0875444A642F5D9214640462A
:10859400FFF7BCFF0028F3D0D9F80040E44394FA75
:1085A400A4F4B4FA84F4E5E710B5034653E8000FE5
:1085B4000A4643E8002494F0000FF7D110BD10B52B
:1085C400034653E8000F40EA010243E8002494F014
:1085D400000FF6D110BD10B5034653E8002F42EA50
:1085E400010043E8000494F0000FF6D110BD10B56B
:1085F400034653E8000F00EA010243E8002494F024
:10860400000FF6D110BD10B5034653E8002F02EA5F
:10861400010043E8000494F0000FF6D110BD10B53A
:10862400034653E8000F00EB010243E8002494F0F2
:10863400000FF6D110BD10B5034653E8002F02EB2E
:10864400010043E8000494F0000FF6D110BD10B50A
:10865400034653E8002FA2EB010043E8000494F022
:10866400000FF6D110BD0121FFF7A9BF0121FFF7CB
:10867400B2BF0021FFF7BBBF10B590B1D0E9012311
:1086840001689B1ADBB20A60013BDBB2FF2B026874
:1086940002D10020107110BD11684C1C14600B70C5
:1086A400F2E70E20F7E737B5054600240DF1070081
:1086B4008DF80740FEF784FF2A686B6811689942B9
:1086C4000ED9481E106011F8013CEC68298A01FBA0
:1086D4000344AB6811791B1ADBB2994238BF13719A
:1086E4009DF80700FEF790FF204603B030BD37B574
:1086F400054600230DF107000C468DF80730FEF700
:108704005FFF2A681368591C1160E968641A298A92
:10871400B4FBF1F41C709DF80700FEF775FF03B07D
:1087240030BD826810B504462AB143690168006906
:1087340098470023A36010BD0EB403B5039921B17B
:1087440004AB01AA019300F06FF802B05DF804EBEA
:1087540003B07047826830B40468551C8560A15426
:10876400D0E901329A4202D330BCFFF7DABF30BC01
:10877400704700002DE9F84F9846DDE90A43154695
:1087840082460F460A464FF00109AA420FD2C1455C
:1087940038BFC14613F0010B01D16CB90024012686
:1087A400B8F1010F1BD908F1FF386E43F8E709F15E
:1087B4000109B2FBF5F2E8E79B070ED5B8F1000F0B
:1087C4000CBF30262026A145E9D2013C3146504653
:1087D400FFF7C0FF002CF6D1E0E72026F3E7B7FB54
:1087E400F6F39D42E1D9DFF83C80B7FBF6F350463F
:1087F40018F8031006FB1377FFF7ACFF3346AB42C0
:10880400B6FBF5F6F1D2BBF1000F02D00CB1A145D5
:1088140001D3BDE8F88F20215046013CFFF79AFFB1
:10882400F4E700BFFC0903002DE9F74F054617469E
:108834008846002900F03E8118F8011B49B92B7BBA
:10884400002B00F03781284603B0BDE8F04FFFF756
:1088540068BF252940F0B780002698F800302D2BFA
:10886400424608F1010823D0302B24D02B2B25D0ED
:1088740000242A2B02F1010123D13B681A1D1B6835
:108884003A601C440A4613782E2B26D101324FF04D
:10889400000A104610F8011BA1F1300CBCF1090FBD
:1088A4001DD80A2303FB0A13A3F1300A0246F0E79A
:1088B40046F00106D1E746F00206CEE746F004068C
:1088C400CBE711F8013CA3F130000928DBD80A22D8
:1088D40002FB0434303C0A46CBE74FF0000A12F89E
:1088E400011B01F0FB0068289046F8D0782909D8CC
:1088F4006F290CD8632962D022D8252963D058293E
:1089040000F0888098F80030002B95D197E77039F3
:108914000829F7D801A353F821F000BF938A020075
:108924000989020009890200298A020009890200D2
:10893400078A02000989020009890200198A0200D3
:10894400642901D06929DDD13A68D2F80090111D5B
:1089540089EAE9723960A2EBE9724FF0010B092A46
:1089640035DCD34538BFD3462CB1B9F1000F01DB58
:10897400720700D5013CB30702D5BAF1000F03D04A
:10898400F00701D44CBB0024B9F1000F2DDAC9F172
:1089940000092D212846FFF7DDFE06F00302022A16
:1089A40004D1BAF1000F01D11CBB0024CDE900466B
:1089B40053460A2249462846FFF7DCFEA2E73B68F5
:1089C4001A1D19783A602846FFF7C4FE9AE70A236D
:1089D4000BF1010BB2FBF3F2C1E7A345D4D2202182
:1089E4002846013CFFF7B6FECCE77107D5D52B210D
:1089F400D0E7A345DAD230212846013CFFF7AAFE8E
:108A0400D2E73968CDE900460A1D3A6053460A2286
:108A14000968D0E739680A1D3A60CDE90046534633
:108A24001022F5E73B681A1D3A6016F00106D3F8E8
:108A3400009024D1B9F1000F03D0484607F036FE68
:108A44000646B4421DD809F1FF3919F8011F00295F
:108A54003FF458AF2846FFF77DFEF6E72846013677
:108A6400FFF778FE19F806100029F7D1A642BFF4E3
:108A740049AF20212846013CFFF76CFEF6E70026AB
:108A8400F0E720212846013CFFF764FED9E73B6864
:108A94001A1D3A60302128461C68FFF75BFE7821D6
:108AA4002846FFF757FE00220823CDE9003221466D
:108AB400102280E703B0BDE8F08F00BF13B50B466A
:108AC400114680B9104B1148114AC01A0E23C00830
:108AD4000093104B0004104940F00100FDF7F3FF30
:108AE4000E2002B010BD4BB9074B08480B4AC01A00
:108AF400C0080E2300930004064BECE703601B68D8
:108B040002B0BDE810401847B4070300040803008E
:108B14000C0A0300C80B0300110A0300400A0300F7
:108B24002DE9F743DDF8288088B93E4B3E483F4A9B
:108B3400C01AC0080E243E4B009400043D4940F086
:108B44000100FDF7C0FF204603B0BDE8F0834AB939
:108B5400344B3548384AC01AC0080E24344B0094AC
:108B64000004EBE7D0F800E0BEF1000F09D12D4B73
:108B74002D48324AC01AC00808242D4B0094000422
:108B8400DCE74BB9274B28482D4AC01AC0080924F2
:108B9400274B00940004D1E74568D5F80490B3FB53
:108BA400F9F509FB15354DB11E4B1F48254AC01A6E
:108BB400C00809241E4B00940004BFE78D0709D0A8
:108BC400184B1948204AC01AC0081024184B0094A6
:108BD4000004B3E712F0030F09D0124B12481B4AEA
:108BE400C01AC0081024124B00940004A6E7C568FC
:108BF400A9420DD34D1EEC180569AC4208D8CDF836
:108C04002880DEF80C40A44603B0BDE8F04360477A
:108C1400044B05480E4AC01AC0081024044B0094A3
:108C240000048BE7B4070300040803000C0A0300E4
:108C3400B50B0300110A03008E0A03003A0A03006D
:108C44004D0A0300940A0300BE0A0300D60A030077
:108C5400F90A0300F7B580B92A4B2B482B4AC01AEE
:108C6400C0080E242A4B009400042A4940F0010055
:108C7400FDF729FF204603B0F0BDD0F800C0BCF1D9
:108C8400000F09D11F4B2048234AC01AC0080824EA
:108C94001F4B00940004E8E74AB91A4B1A481F4ACC
:108CA400C01AC00809241A4B00940004DDE7456883
:108CB400D5F800E00EF1FF350D4209D0114B1248F2
:108CC400174AC01AC0081024114B00940004CCE7C2
:108CD400C568A9420CD34D1E0EFB02540569AC4273
:108CE40006D8DCF81040A44603B0BDE8F040604765
:108CF400044B05480B4AC01AC0081024044B0094C6
:108D04000004B2E7B4070300040803000C0A0300DC
:108D1400A20B0300110A03003A0A03004D0A0300E0
:108D2400200B0300460B030029DF704728DF704740
:108D340070B503689E6886B004460D466EB1142271
:108D44000021684607F07FFCA36805932379019509
:108D54002BB1012B0DD06846B04706B070BD01237E
:108D64008DF8003023690293E368039363690493E5
:108D7400F1E702238DF80030E3681B030293F5E763
:108D84000846704700207047024B187A003818BF15
:108D940001207047382E0020034B187A0122B0FAC4
:108DA40080F05A7440097047382E002008B51046E8
:108DB4001A4607F01FFC002008BD000008B5142265
:108DC4000021044807F03FFC0348FFF7FFFA0020A6
:108DD40008BD00BF382E0020282E002010B5094CF5
:108DE400094B43602046FFF73EFC40B907F098F971
:108DF400064920741C2306488C22FFF7D4FA00206D
:108E040010BD00BF382E0020DC0B03009C2D002079
:108E1400282E002038B5234D234C2B7A3BB9234907
:108E24002348FFF72FFB206008B9686038BD022390
:108E340024682B72237973B1012B24D0204603219B
:108E4400FFF776FF00232B726B6018491848BDE8C2
:108E54003840FFF742BBD4E90523D21AB2F5805F4C
:108E6400D4E9031028BF4FF480529208012A38BF76
:108E7400012219441844FFF757FF50B11128DDD1DE
:108E840001232B72D2E7D4E903031844FFF74EFF02
:108E9400F3E72B7C002BC9D1BDE83840022000F059
:108EA40009B800BF382E0020502E00204C2E002080
:108EB400282E002038B5234C237A002B41D0022BD6
:108EC40009D1032830D0204B00221B68E2601A79B4
:108ED4003AB1012A22D0637C7BBBBDE83840FFF75E
:108EE40099BFD3E905128D1AB5F5805F94BF521965
:108EF40002F580529A619142EDD102284FF00003AD
:108F040008BF19462372104B18BF0D211868FFF7CC
:108F14000FFF0E490E48FFF7E0FADCE71A69013249
:108F24001A615B699A42E7E7E3680133082B01D8C9
:108F3400E360D0E70023E360DFE7BDE8384007F0F3
:108F4400DFB838BD382E0020502E00204C2E0020D3
:108F5400282E0020831E012B01D8FFF7ABBF7047DA
:108F640000F0FD03012B08D1044B00225A74421E69
:108F7400504250411874FFF74DBF7047382E0020FF
:108F840010B5064C201DFFF76EFB28B9637C1BB996
:108F9400BDE81040FFF73EBF10BD00BF382E0020D3
:108FA4002DE9F34180460D460F4801A916461F4698
:108FB400FFF72EFA0446A8B11C22002107F043FB58
:108FC4002D0B0123237101A90748C4F80080A76071
:108FD400E5606661FFF746FAFFF7D2FF002002B0B2
:108FE400BDE8F0810420FAE7282E00202DE9F7439C
:108FF40081468846104801A917461E46FFF708FA1D
:109004000446B0B11C22002107F01DFB00250A9B79
:10901400A36001A9C4E9037807482571C4F8009046
:109024006661FFF71FFAFFF7ABFF284603B0BDE800
:10903400F0830420FAE700BF282E00202DE9F84F22
:10904400B0F806A04579D2F800B09DF828900AFB44
:1090540005F5043D88460BEB0301A94203F1040422
:1090640088BFA5EB030BB4FBFAF607460AFB1644CC
:10907400C2F800B04EB9AAEB04055D4528BF5D46B1
:10908400BBF1000F04D1BDE8F88F3F68013EF1E762
:10909400043408EB06003C442A46B9F1000F0DD015
:1090A4002146ABEB050B07F0A5FADA452E443F68E1
:1090B40055464FF0000428BF5D46E1E701462046CF
:1090C400EFE7FFF7D9BAF8B546790146721E0546AF
:1090D400002393422D6803D30024A64202D8F8BD8E
:1090E4000133F6E70F682846FFF701FB01343946E0
:1090F400F3E72DE9F843068ACD1C0746FFF7D3FAB8
:10910400043E35440446B5FBF6F5F0B14FF48073E4
:10911400EDB28380C680013D076081464FF00008B0
:10912400A84512D23846FFF7BEFA064648B163791D
:109134000133637108F10108C9F800000760814632
:10914400EEE72046FFF7BFFF34462046BDE8F8832C
:1091540001210430FFF76FBA10B501210446043031
:10916400FFF775FAC0B220B92046BDE81040FFF7FA
:10917400AABF10BD1FB503920022009203AAFFF7F5
:109184005DFF05B05DF804FB1FB503920122009258
:1091940003AAFFF753FF05B05DF804FB41DF7047F6
:1091A400064B10B500241C70054B1C60BFF35F8F89
:1091B4000449054800F03BF8204610BD5C2E002011
:1091C400602E0020140C0300542E002007B5002349
:1091D4000DF107008DF80730FEF7F2F9F1EE103AC1
:1091E40023F09F03E1EE103ABFF35F8F0A4B402256
:1091F400C3F884219DF80700FEF706FA06F090FFF5
:1092040020B103B05DF804EBFFF7C8BF20BF40BF37
:1092140020BF03B05DF804FB00E100E08368002296
:109224005A60C3E904229A60DA601A6070470B68D6
:109234004A684360934208BF0023016008BF43604B
:109244007047436843B10268916852680B44934283
:10925400436004BF002343607047000010B50D490C
:10926400A1F59472914201D800200FE08C1AE30F0B
:1092740003EBE4035B1002EBC30452F83330834284
:1092840005D802D204F10802ECE7606810BD21465B
:10929400E8E700BF1811030008B5FFF7DFFF024B32
:1092A400002808BF184608BDDA0F03004FF08053AA
:1092B400D3F83021082A03BFD3F83401B0FA80F080
:1092C400400900207047000008B54FF08043002299
:1092D400C3F80C21C3F81021C3F838254FF080528D
:1092E40003F54043D2F80414C3F82015D2F8081447
:1092F400C3F82415D2F80C14C3F82815D2F81014A6
:10930400C3F82C15D2F81414C3F83015D2F8181475
:10931400C3F83415D2F81C14C3F84015D2F820143D
:10932400C3F84415D2F82414C3F84815D2F8281405
:10933400C3F84C15D2F82C14C3F85015D2F83014D5
:10934400C3F85415D2F83414C3F86015D2F838149D
:10935400C3F86415D2F83C14C3F86815D2F8401465
:10936400C3F86C15D2F84424C3F87025FFF79EFFA8
:1093740018B13B4B3B4AC3F88C26FFF797FF18B153
:10938400394BFB22C3F81825FFF790FF70B14FF05B
:1093940080414FF08053D1F8E42ED3F8583222F0B4
:1093A4000F0203F00F031343C1F8E43EFFF77EFFFF
:1093B40020B12E4B4FF40072C3F840264FF0804387
:1093C400D3F80024D20744BF6FF00102C3F800248D
:1093D400274AD2F8883043F47003C2F88830BFF3C8
:1093E4004F8FBFF36F8F4FF01023D3F80022002A62
:1093F40003DBD3F80432002B2EDA1E4B0122C3F810
:109404000425D3F80024002AFBD04FF010221221A7
:10941400C2F80012D3F80024002AFBD04FF0102326
:109424001222C3F80422134BD3F80024002AFBD0E1
:109434000022C3F80425D3F80024002AFBD0BFF38C
:109444004F8F0B490C4BCA6802F4E0621343CB60A4
:10945400BFF34F8F00BFFDE7084B094A1A6008BDF0
:10946400005000404881030000F00040009002409A
:1094740000ED00E000E001400400FA054022002075
:109484000090D003074B1B5C1F2B8ABF064A4FF08A
:10949400A04203F01F03D2F80405D840C04300F0F3
:1094A400010070471C11030000030050074B1B5CB4
:1094B4001F2B86BF064903F01F034FF0A041012272
:1094C40002FA03F3C1F80C35704700BF1C11030006
:1094D40000030050074B1B5C1F2B86BF064903F09B
:1094E4001F034FF0A041012202FA03F3C1F808352B
:1094F400704700BF1C1103000003005008B5002092
:10950400FFF7E8FF0120FFF7E5FF0220FFF7E2FF86
:10951400BDE808400320FFF7DDBF08B50020FFF7D2
:10952400C5FF0120FFF7C2FF0220FFF7BFFFBDE820
:1095340008400320FFF7BABF0A4B185C1F288ABFF4
:10954400094B4FF0A04300F01F00D3F8042501217C
:10955400814021EA02000A40C3F80805C3F80C253B
:10956400704700BF1C11030000030050074B1B5C35
:109574001F2B8ABF064A4FF0A04203F01F03D2F804
:109584001005D840C04300F00100704718110300D3
:10959400000300500B2809D00C2809D0182809D042
:1095A40019280CBF03204FF0FF307047002070478C
:1095B4000120704702207047014B185C704700BFC0
:1095C40018110300C20710B504460CD54FF0A04390
:1095D4000322C3F83427C3F83827C3F83C27C3F859
:1095E4004027FFF78BFFA3070AD54FF0A0430C22B7
:1095F400C3F82C27C3F83027C3F86027C3F86427BF
:1096040010BD000038B5074C051E04F1080318BF4F
:109614001C4623682BB11A6822605B682846984769
:10962400F7E738BD6C2E002020B9054B01225A7093
:10963400FFF7E8BF012802D1014A9070F8E77047AC
:10964400642E002020B9034B01225A70FFF7DABFC1
:10965400704700BF642E002038B50B4C237883B9C3
:109664000A486360A3602361E36000F0D5F805460F
:1096740006F056FD08B900F0DBF8012323702846F4
:1096840038BD8525FBE700BF642E00202D9602001F
:1096940037B50B4C00230DF107008DF80730FDF7AB
:1096A4008FFFE368013BE360E56815B900F0D4F887
:1096B400A5709DF80700FDF7A7FF03B030BD00BFFC
:1096C400642E0020012813B508D003281CD018B933
:1096D400114B0122C3F8802002B010BD0F4C0023AF
:1096E4000DF107008DF80730FDF76AFF23780BB9F9
:1096F400FFF7B2FFE3689DF807000133E36001233D
:10970400A370FDF781FFE7E700F092F802B0BDE82F
:109714001040FFF7BDBF00BF00E100E0642E002051
:109724001FB503788DF8003043680193037A8DF8F0
:109734000830C368054A0393054B684653F8213043
:1097440052F82110984705B05DF804FB782E0020EC
:10975400802E00201FB503788DF8003043680193F4
:1097640083688DF80830C368054A0393054B68463F
:1097740053F8213052F82110984705B05DF804FBE6
:10978400782E0020802E0020F0B5194B90F800C0F0
:10979400DFF86CE043F82C20164B16460A6943F8B0
:1097A4002C204B7F0EF80C300C4607460FCC89B0AA
:1097B4006D460FC594E80F0085E80F003B78CDF89F
:1097C40010C01EF803304BB1002E0B4A694608BF87
:1097D4003246381D00F0FAFD09B0F0BD002E074AEC
:1097E400694608BF324607F10C0000F0C9FBF3E7F5
:1097F400802E0020782E0020259702005997020021
:10980400882E002000F18040002382B003600368AA
:109814000193019B02B07047044A137923B90121D3
:109824001060918018467047852070478C2E002068
:10983400084B1A68D20706D4C02283F800230122F9
:10984400C3F880211A604FF080430122C3F8182521
:10985400704700BF00E100E04FF080430122DA606E
:10986400D3F81824D203FBD4704700004FF0804192
:1098740010B5D1F8003163B14FF48070FFF7C2FF27
:109884000D4B58790122C1F8082310B95A711B688D
:1098940098474FF08042D2F8043163B14FF482709C
:1098A400FFF7B0FF0223C2F80833034BBDE81040B2
:1098B4001B680120184710BD8C2E002000F1804049
:1098C40000F5C040002382B0036003680193019B4C
:1098D40002B0704703681F2B83BF03F01F030360AC
:1098E40001484FF0A04070470003005007B50190B5
:1098F40001A8FFF7EFFF019B00EB8300D0F80037CE
:1099040023F44033C0F80037D0F8003743EA01416C
:10991400C0F8001703B05DF804FBC208012300F08F
:10992400070003FA00F08B5C18438854704700006A
:10993400054B4FF0FF32072843F8202084BFC0189E
:1099440080F85820704700BF942E002010B5184CA2
:1099540094F86A3053BB04F130033021FF220139FB
:1099640011F0FF0103F8012BF9D1C8B20131FFF75F
:10997400DFFF0C29F9D106220E48002106F063FE10
:109984000D4BC02283F806234022C3F880214FF4F4
:10999400BE701A60FFF792FF084B4FF00042C3F805
:1099A4000423012384F86A30002010BD0820FCE75A
:1099B400942E0020F82E002000E100E0006000401A
:1099C400034B93F86A00003818BF0120704700BFAA
:1099D400942E00202DE9F341DFF8F48008EB000316
:1099E400054693F93030002B0F466CDA8B78C3F3BD
:1099F4004003002B0BBF082400240C2108218C42B7
:109A040003D1042002B0BDE8F08158F824000130ED
:109A140041D108EB050166B248F8242081F8306092
:109A24001BB908EB040383F85850BB785A0712D4C7
:109A3400D90732D501A80195FFF74CFF019B00EB34
:109A44008300D0F8003723F00203C0F800371F4921
:109A54002846FFF762FFBB783A7813F0020328D058
:109A6400A40004F1804404F5C0442D02D4F8103558
:109A740023F44F3323F44073C4F810351204D4F89C
:109A8400103505F47C5502F4403215431D43C4F8E7
:109A940010550020B6E70134B1E701A87A780195A2
:109AA400FFF718FF019B03F5E073920040F82320B1
:109AB400CDE7083E48FA86F898F8605045EA8212E5
:109AC40088F86020E5E708209CE700BFF82E002016
:109AD400942E002073B5244D2E18044696F9302098
:109AE400072A1DDD083A45FA82F595F860309B098E
:109AF400032B10D1019001A8FFF7ECFE019BD0F8D5
:109B04001015D94001F001010231204602B0BDE830
:109B14007040FFF7EBBE012B0CBF02210321F4E7D9
:109B2400D3B2072B1DD8930003F1804303F5C04340
:109B3400D3F8100540F00100C3F8100502F140000D
:109B440040B2800080B2FFF7B9FE51B196F93030CF
:109B540055F823302BB1012303FA02F2034BC3F867
:109B6400042302B070BD00BF942E002000600040AA
:109B740007B5019001A8FFF7ADFE019BD0F81005D1
:109B8400D84000F0010003B05DF804FB2DE9F04F6C
:109B940000248BB0CDE90444644D4FF4807201215C
:109BA40002F1804303F5C04390B21B68012B06D138
:109BB400D5F804330B4202D0FFF780FE0C43043285
:109BC400B2F5907F4FEA4101EAD1584BD3F87C318A
:109BD400012B0ED14FF4BE70FFF770FE4FF0A0437F
:109BE40044F00044D3F810350493514BD3F81035A6
:109BF4000593E3B2D3B14F4F00250126344210D070
:109C0400AB0003F1804303F5C043D3F81005D3F848
:109C1400101557F8253023B1C1F30141C0F30520D5
:109C240098470135082D4FEA4606E7D1002C79DA2A
:109C34000023CDE906334FF0FF33CDE90833DFF8D5
:109C4400F4A03D4B019300263546019B13F9014BCB
:109C54000193631C4DD0C4F3C2070122E3B204F0A4
:109C64003F0B04F0070402FA04F40AAA174417F895
:109C7400081C21423DD00AEB0B014FEA931991F9DC
:109C840030105AF82180B8F1000F07D1B9F1030F51
:109C94002FD106A95846FFF740FE02E0B9F1030FA1
:109CA400F7D003A8CDF80CB0FFF714FE039901F523
:109CB400E07150F8211017F8180C2042C1F301414B
:109CC40006D0022915D1B9F1030F0CD1494605E09C
:109CD40003290ED1B9F1030F05D102215846FFF72C
:109CE40005FE0135EDB2B8F1000F02D049465846E1
:109CF400C0470136042EA8D1A5B14FF0A043049962
:109D0400D3F8102503F540739142D3F8103502D1EE
:109D14000599994206D004920593069A079B0892E6
:109D240009938EE70BB0BDE8F08F00BF00600040E0
:109D340000030050942E0020F42E0020014B1B68D9
:109D4400184700BF002F00200E4B984237B50C4631
:109D540002D0002003B030BD00230DF107008DF8C0
:109D64000730FDF72DFC084B1D7915B901221C6045
:109D74001A719DF80700FDF747FC002DE9D011206A
:109D8400E8E700BF00200040002F0020034B98426A
:109D940001BF034B00221A601A7170470020004073
:109DA400002F00200023435082B043580193019BAD
:109DB40002B070470A4610B54FF48E71FFF7F2FFF8
:109DC400136A9168C95C136A01331362C0F81C15E5
:109DD40010BD8B690A4610B54FF4847123B9FFF79F
:109DE400E1FFD0F8183510BDFFF7DCFF536AD168E6
:109DF400D0F81805C854536A01335362F3E70000DE
:109E04001FB501238DF80030044BCDE90110D3E9CF
:109E140000126846904705B05DF804FB082F002047
:109E240030B54D4DD5F804339A0585B051D5D5F8E4
:109E34002431002B4DD04FF492712846FFF7B2FF26
:109E44004FF40173C5F80833444B93F829200AB939
:109E540001226A60404902228DF80020D1F8802452
:109E6400C1F8802403929A690292DA68019200226E
:109E7400C3E906226846D3E9001290473648D0F871
:109E84001C315BB1354A116A536999424DD292F83B
:109E94002830002B49D11146FFF78CFF2E48D0F80B
:109EA4004431002B55D04FF4A271FFF77BFF2B4BAD
:109EB40093F829200AB1012202609A69002A48D045
:109EC400586AD96800229A6105B0BDE83040FFF7AE
:109ED40097BFD5F804335B07D0D5D5F80831002BEC
:109EE400CCD01E4C1C482146FFF773FF636AA2695D
:109EF4009A42C3D1E369E1684BB1A3612369E3608A
:109F04000023606AE3616362FFF77AFFB6E794F8BF
:109F140029300BB901236B600F4B4FF40172C3F866
:109F240008230023606AA361EEE74FF48E710A48A8
:109F3400FFF738FF51690029B0D0002302919168DE
:109F44008DF80030019153616846D2E900139847B7
:109F5400A4E705B030BD00BF00200040082F00205A
:109F64001F2886BF00F01F00044B4FF0A04300F5EC
:109F7400E070022243F82020704700BF0003005025
:109F84002DE9F843664D90F804802C2303FB085315
:109F9400064693F82A300C469146002B40F0BB80CD
:109FA40060490068FFF7D0FE0746002840F0B580FE
:109FB4002268531C10D01F2A87BF5B4902F01F037D
:109FC40013464FF0A0410120984003F5E073C1F817
:109FD4000805032041F823006168481C0DD01F299F
:109FE4008BBF01F01F030B464F484FF0A04003F511
:109FF400E0734FF0000C40F823C03068A369C0F848
:10A00400243594F814C0637DBCF1010F4CEA0303BA
:10A01400C0F86C35C0F81415C0F80C252BD1A36812
:10A02400591C0DD01F2B8BBF03F01F021A463E494B
:10A034004FF0A04102F5E0724FF0000C41F822C04D
:10A04400E1684A1C13D01F2987BF374A01F01F0C4F
:10A054008C464FF0A0424FF0010E0EFA0CFE0CF5A8
:10A06400E07CC2F808E54FF0030E42F82CE0C0F89B
:10A074000815C0F810352C2202FB08F2AB18C3F8FF
:10A0840004902369AB50B9F1000F31D04FF48E71B5
:10A09400227FFFF787FE30684FF4A271FFF782FE3C
:10A0A40033682249C3F80413190B43F30733002B15
:10A0B400A8BF03F160404FEA5313BCBF01F00F0483
:10A0C4001B484FEA4212A8BF00F561404FEA8303E0
:10A0D400D2B203F16043B4BF025580F8002303F504
:10A0E400614301F01F0101228A40C3F880211A60F4
:10A0F40033680422C3F800252C2303FB08530022F1
:10A10400C3E9062283F829205A61012283F82A2010
:10A114003846BDE8F8830827FAE71127F8E700BFB7
:10A12400082F0020259E020000030050800002003A
:10A1340014ED00E02DE9F04103680579244C002278
:10A14400C3F800252C2202FB0542014652686AB17D
:10A15400204AC3F8082343F30732C3F304365209F1
:10A164000120B04020321C4E46F82200D3F80C05E2
:10A17400D3F81485D3F80865D3F810754FF0FF327F
:10A184009042C3F81425C3F80C25C3F80825C3F876
:10A19400102501D0FFF7E4FEB8F1FF3F02D040469E
:10A1A400FFF7DEFE7A1C02D03846FFF7D9FE731C97
:10A1B40002D03046FFF7D4FE0868FFF7E7FD2C23F2
:10A1C40003FB0544002384F82A306360BDE8F08172
:10A1D400082F00208402020000E100E00279044B11
:10A1E4002C2101FB02335869003818BF0120704745
:10A1F400082F00202DE9F84F064689469246FFF7BE
:10A20400EDFF044600283DD196F804801F4F2C250D
:10A2140008FB057B4FF48E71CBF82000CBF814A01B
:10A224008BF82800CBF808903068FFF7BBFD306846
:10A23400012383605946FFF7BDFDDBF804305D461A
:10A2440013BB30682A6A6B699A4211D33368D3F816
:10A254001C21002AFBD00122DA6000202C2303FBFE
:10A26400087700237B61BDE8F88F95F828303BB967
:10A27400D0F81C31002BF8D05946FFF79BFDE1E7DD
:10A284000F20EBE71120EEE72046ECE7082F002033
:10A294000023435082B043580193019B02B070479E
:10A2A4001FB501238DF80030054B8DF8080001918E
:10A2B4006846D3E90012904705B05DF804FB00BF7F
:10A2C400342F00207FB5374AD2F82461002E47D0BE
:10A2D40010464FF49271FFF7DBFF02238DF8003034
:10A2E400D2F88034C2F880340393D2F83C358DF828
:10A2F40008302D4BDA6801920022C3E90622684631
:10A30400D3E9001290472748D0F844316BB14FF499
:10A31400A271FFF7BDFF244B9A6932B100229A6102
:10A32400D0F83C05D968FFF7BBFF1E48D0F82031B0
:10A33400A3B14FF49071FFF7ABFF1B4B5A696AB19D
:10A34400D0F84C158DF80810002299688DF800207B
:10A3540001915A616846D3E90012904704B070BD78
:10A36400D2F81031002BCED04FF488711046FFF78D
:10A374008FFF0D4BD2F83C0599698842C3D1DC6943
:10A38400D96864B1D2F8005225F02005C2F8005211
:10A394001A699C61DA60DE61FFF782FFB3E79C61B2
:10A3A400FAE700BF00200040342F00201F2886BF9A
:10A3B40000F01F00044B4FF0A04300F5E0700222B0
:10A3C40043F82020704700BF000300502DE9F843F4
:10A3D4006A4E90F80480242303FB0863054693F82F
:10A3E40020300C469146002B40F0C380644900683D
:10A3F400FFF7AAFC0746002840F0BD8021684B1CEB
:10A4040010D01F2987BF5F4A01F01F030B464FF08E
:10A41400A0420120984003F5E073C2F80805032028
:10A4240042F823006268501C0DD01F2A8BBF02F033
:10A434001F03134653484FF0A04003F5E0734FF059
:10A44400000C40F823C02868A369C0F8243594F8A8
:10A4540014C0637DBCF1010F4CEA0303C0F86C35F2
:10A46400C0F80C15C0F814252BD1A368591C0DD0C5
:10A474001F2B8BBF03F01F021A4642494FF0A04125
:10A4840002F5E0724FF0000C41F822C0E1684A1C6A
:10A4940013D01F2987BF3B4A01F01F0C8C464FF095
:10A4A400A0424FF0010E0EFA0CFE0CF5E07CC2F84F
:10A4B40008E54FF0030E42F82CE0C0F80815C0F888
:10A4C4001035242202FB08F2B318C3F80490236960
:10A4D400B350B9F1000F3BD04FF48871227FFFF7DE
:10A4E400D7FE28684FF49071FFF7D2FE28684FF426
:10A4F4009271FFF7CDFE28684FF4A271FFF7C8FEF2
:10A504002B682149C3F80413190B43F30733002BB9
:10A51400A8BF03F160404FEA5313BCBF01F00F041E
:10A524001A484FEA4212A8BF00F561404FEA83037C
:10A53400D2B203F16043B4BF025580F8002303F59F
:10A54400614301F01F0101228A40C3F880211A608F
:10A554002B680822C3F80025242303FB0866002384
:10A56400C6E906337361012386F820303846BDE816
:10A57400F8830827FAE71127F8E700BF342F0020F3
:10A58400C9A20200000300501003020014ED00E011
:10A594002DE9F04103680579244C0022C3F8002515
:10A5A400242202FB0542014652686AB1204AC3F8DC
:10A5B400082343F30732C3F3043652090120B040A1
:10A5C40020321C4E46F82200D3F80C05D3F814852B
:10A5D400D3F80865D3F810754FF0FF329042C3F8F2
:10A5E4000C25C3F81425C3F80825C3F8102501D099
:10A5F400FFF7DCFEB8F1FF3F02D04046FFF7D6FE7E
:10A604007A1C02D03846FFF7D1FE731C02D03046C4
:10A61400FFF7CCFE0868FFF7B9FB242303FB0544CE
:10A62400002384F820306360BDE8F081342F0020DB
:10A634001003020000E100E00279044B242101FB35
:10A6440002335869003818BF01207047342F0020A6
:10A654002DE9F84301F06043B3F1005F06468846F4
:10A66400914634D1FFF7E8FF044690BB32791B4F83
:10A674003068242505FB02754FF49071C5F81490D9
:10A68400C5F80880FFF704FE30684FF4AC71FFF79B
:10A69400FFFD33686969A868C3F84405C3F8481521
:10A6A400012199606968B1B9D3F82011D3F8580130
:10A6B40049B90028F8D00F20242303FB0277002394
:10A6C4007B61BDE8F883002818BF0F20F4E7102051
:10A6D400F7E71120F5E72046F3E700BF342F002009
:10A6E4001F288ABF094B4FF0A04300F01F0003EB63
:10A6F4008000D0F8003723F44033C0F80037D0F896
:10A70400003743EA0141C0F80017704700030050C6
:10A714000220FEF711BF00002DE9F04780460D46E8
:10A72400FEF738FF0328044610D8012D10D0022D5F
:10A7340030D05DB91A48FCF733FF1A4B04EB4402DE
:10A7440013449D78184B1B5DAB4219D0BDE8F087CC
:10A75400144E00EB4003F218F55C5378470053B1F4
:10A76400DFF84C900E484A464FF40041FCF7D0FE07
:10A7740008B989F8008027443E440B4BB2781A5537
:10A78400002DE3D0094B1B68002BDFD02846BDE821
:10A79400F047184700EB4004024804446578EFE7AB
:10A7A4007C2F0020BC2F0020D52F0020D02F00208C
:10A7B400582F002000780221FFF7AEBF08B5094BDF
:10A7C4001B7853B10020FEF785FE0120FEF782FEC0
:10A7D400BDE808400320FEF77DBEBDE80840FEF753
:10A7E4008DBE00BF592F0020F8B57A4C237805465A
:10A7F4001BB100232370FFF7E1FF172D00F28780C0
:10A80400DFE805F00C1717425364757F878C878C3B
:10A81400949999999999C3C8D0D8E3E3FFF7CEFFE7
:10A824006D48FCF7BDFE6D4B002204461A702046AD
:10A83400F8BD0020FEF726FEF0B10020FEF74AFE28
:10A84400022D0CBF4FF4E1644FF47A64634B1D7026
:10A8540000254FF400464FF4FA7029464FF47A72FB
:10A864000023E4FB060105F0C9FD2A460146BDE8C4
:10A87400F8405948FCF74CBEFEF718FE022D0CBFF9
:10A88400C8244FF4C874E1E70020FEF7FBFD40B193
:10A894000020FEF71FFE4FF44874504B03221A7039
:10A8A400D6E7FEF703FEC824F7E70020FEF7EAFD2B
:10A8B40038B10020FEF70EFE4FF47A64474B0422B1
:10A8C400EDE7FEF7F3FD4FF4C874F7E70020FEF759
:10A8D400D9FD48B10020FEF7FDFD404B05221A705A
:10A8E40041F69A110022C2E7FEF7E0FDF5E70020E9
:10A8F400FEF722FE394B06221A70002240F6CD41A3
:10A90400B5E70020FEF7D2FD344B07221A7000246D
:10A914008DE701202070FEF70FFEEEE70120207086
:10A92400FEF70AFE00224FF48041A0E7FEF7F5FD92
:10A934002A4B0C22EAE72A482A4EFCF731FED5F1CD
:10A94400110504461CD0D8B9012D13D0C8204543A5
:10A9540021464FF400474FF4FA704FF47A72002303
:10A96400C5FB070105F04AFD224601461C48FCF7D9
:10A97400CFFD04460220FEF799FD0123337056E70C
:10A984000220FEF7A7FD0023F8E7FFF717FF134B9C
:10A994001222BBE7FFF712FF0020FEF787FD0F4BE3
:10A9A4001322B3E7FFF70AFF0120FEF77FFD0B4BED
:10A9B4001422ABE7FFF702FF0020FEF777FD01202A
:10A9C400FEF774FD054B1522A0E7FEF7A6FD034B29
:10A9D4001D709CE7CC2F00209C2F0020D42F00203A
:10A9E4005C2F0020592F0020044B1B68DB0703D584
:10A9F400034B1878FFF7F8BE704700BFC82F00203C
:10AA0400D42F0020032801D8FEF7B0BD00207047E2
:10AA1400044B1B6813F0010301D0FFF7E5BE184691
:10AA2400704700BFC82F002038B51C4B18601C4B62
:10AA340010F00204054619601AD01A4B1A480E2267
:10AA44001A700F22DA7010229A7111225A7204219C
:10AA540040F26662FCF758FA044648B9FCF7AAFAD1
:10AA6400044628B90146114A1148FCF73FFD044643
:10AA7400EB0711D50120FEF7A5FD6CB921460D4A5F
:10AA84000D48FCF733FD044630B9BDE838400B4AA5
:10AA94000B480121FCF72ABD204638BDC82F0020F1
:10AAA400D02F0020BC2F002044110300B9A70200BE
:10AAB40068110300EDA902006C11030015A7020040
:10AAC40064110300032811D8012A0AD101290FD1E6
:10AAD40000F10E02D2B20D4B00EB40001A540020DC
:10AAE40070470129F7D0022904D049B107207047E3
:10AAF4000022F8E7054B00EB400018444270EEE7F3
:10AB0400024B00EB400018448270E8E7BC2F0020A1
:10AB1400032808B506D8FEF74FFD0321FFF7E0FD33
:10AB2400002008BD0620FCE708B501220221002010
:10AB3400FFF7C8FF08B1072810D10722022101201E
:10AB4400FFF7C0FF08B1072808D100210A220846F0
:10AB5400FFF7B8FF10B1072808BF002008BD0000A8
:10AB64000388102B10B502D0112B1ED010BD1A4C27
:10AB74002168B1B901220846FFF7A4FF08B10728EC
:10AB840024D1072202210120FFF79CFF08B10728E6
:10AB94001CD1042202210020FFF794FF08B10728EA
:10ABA40014D1236801332360E0E70B4A1368013BA7
:10ABB4001360002BDAD1FFF7B7FF0028D6D0074B7C
:10ABC4001B68002BD2D0BDE810401847034B1B680C
:10ABD400002BE6D09847E4E7E02F0020DC2F00208C
:10ABE40008B50020FFF794FF08B1062806D101201C
:10ABF400FFF78EFF10B1062808BF002008BD000033
:10AC04000D4B10B518600C4629B10120FFF7FAFE70
:10AC140040B102232370094B1B6853B9BDE81040AF
:10AC2400FFF782BFFFF7EEFE08B10B23F2E72070B7
:10AC3400F1E7002010BD00BFDC2F0020E02F002032
:10AC440076DF70477ADF70477CDF70478FDF7047AD
:10AC540033DF7047FCF7C4B908B50020FFF7D8FE0E
:10AC640008B1FCF7BDF9FFF7BBFF08B1FCF7B8F971
:10AC7400FFF7EEFF18B1BDE80840FCF7B1B908BD15
:10AC840008B5042832D8DFE800F02D03311521007F
:10AC9400174B18481849C01AC008000440F00300B4
:10ACA400FBF7FAFE0520FFF7B3FEF8B1BDE8084054
:10ACB400FCF796B90E4B0F481049C01AC00800049F
:10ACC40040F00300FBF7E8FE0220ECE7084B0948DC
:10ACD4000B49C01AC008000440F00300FBF7DCFE77
:10ACE4000420E0E7BDE80840FFF7B6BF08BD00BF99
:10ACF400B4070300DC07030070110300851103008F
:10AD040096110300043838B50C2800F2AB80DFE854
:10AD140000F00BA9A9A9A9A907A9A9A91849720012
:10AD2400BDE83840FFF798BF4F4B13211888FFF751
:10AD340087FF30F0080300F09580BDE83840FCF749
:10AD44004FB94A4802894FF6FF739A4200F08A804D
:10AD5400474B484C48491A78641AE4082404022AE8
:10AD640044F003040ED1012211201A70FFF750FEA3
:10AD7400424905462046FBF78FFE35F0080371D0A3
:10AD84002846DAE7012A06D100221A7005F029F8CC
:10AD94003B490546EEE701221A7005F015F83949DA
:10ADA4000546E7E7314802894FF6FF739A4259D0C6
:10ADB400354B304C30491A78641AE4082404022ACA
:10ADC40044F0030407D1012211201A70FFF720FE7A
:10ADD4002E490546CEE7012A06D100221A7005F055
:10ADE40013F82B490546C5E701221A7004F0FFFF4A
:10ADF40028490546BEE71D4802894FF6FF739A426B
:10AE040030D0214B1B78013B012B11D8FF2105F0D9
:10AE140068F830F0080301D0FCF7E2F81548164B47
:10AE24001D49C01AC008000440F00300FBF734FEBB
:10AE34000F4B1B78013B012B14D80C48FF2105F064
:10AE440043F830F0080301D0FCF7CAF80A4B09486C
:10AE54001249C01AC0080004BDE8384040F003009D
:10AE6400FBF71ABE38BD00BF102500205032002069
:10AE7400C0320020DC070300B4070300A71103005D
:10AE8400BD110300D8110300D0320020F2110300D9
:10AE94000B1203002912030046120300811203005F
:10AEA4000388212B13B5044640D005D8102B19D0A4
:10AEB400112B0AD002B010BD3B2B45D0562BF9D133
:10AEC400A0881321FFF7BCFE29E0224B2248234926
:10AED400C01AC008000440F0030002B0BDE81040EE
:10AEE400FBF7DABD1B4B1C481D49C01AC0080004FF
:10AEF40040F00300FBF7D0FD0720FFF789FD08B100
:10AF0400FCF76EF8A188174C1748218001F00CFB60
:10AF140008B1FCF765F82188144802F0F7FB002813
:10AF2400C8D002B0BDE81040FCF75AB800238088AE
:10AF34008DF8043001A98DF80530FFF787FE00284D
:10AF4400B8D0FCF74DF8B5E7064B4FF6FF721A8000
:10AF5400B6E700BFB4070300DC070300B91203001F
:10AF6400C71203001025002044220020C432002010
:10AF74000146014804F0E4BD5032002030B50378A6
:10AF840085B00446042B00F2A780DFE803F05BA53C
:10AF9400AD039300838842F64522934227D15A4D4C
:10AFA4002B78012B40F098800E20FFF731FD08B17B
:10AFB400FCF716F802232B705448554B5549C01A18
:10AFC400C008000440F003000190FBF765FD227AFD
:10AFD400514B524953F822200198FBF761FD627AE4
:10AFE4004F49019805B0BDE83040FBF759BD42F622
:10AFF4004622934270D14B4D2B78012B6CD10D20FE
:10B00400FFF706FD08B1FBF7EBFF02232B703F4867
:10B014003F4B4549C01AC008000440F003000190AA
:10B02400FBF73AFD3C4B227A3C4953F82220019825
:10B03400FBF736FD627A3D490198FBF731FD226941
:10B044003B49CEE7418800F108023A4804F055FF35
:10B0540008B1FBF7C5FF374804F002FF08B1FBF75E
:10B06400BFFF344804F016FF08B1FBF7B9FF3148BD
:10B0740004F0AAFE08B1FBF7B3FF2A4B234C2E4978
:10B0840001251D70224BE41AE408240444F003044F
:10B094002046FBF701FD274804F0A9FE08B1FBF7A1
:10B0A4009FFF194B25491D70204605B0BDE830406F
:10B0B400FBF7F2BC838842F6482293420ED1012367
:10B0C4008DF80C301B48237A8DF80D3003A904F059
:10B0D400A1FE08B1FBF784FF05B030BD42F647225C
:10B0E4009342F9D10023EBE70E4A00231370064A7A
:10B0F40011201370FFF78CFC0028EDD005B0BDE8DB
:10B104003040FBF76DBF00BFD0320020DC070300E6
:10B11400B4070300D21203003C140300EA12030034
:10B1240009130300C0320020281303003D13030059
:10B134005C13030050320020D811030029120300CD
:10B1440008B50548032100F06CFC18B1BDE80840BF
:10B15400FBF746BF08BD00BFE42F002010B504462E
:10B1640003F01AFE204603F033FC23780C2B03D1A2
:10B17400BDE81040FFF7E4BF10BDFBF731BFFBF79C
:10B184002FBF000000B54FF40041AFB00020FBF723
:10B19400C7FA08B1FBF724FFFBF7F6F9FCF776F9D9
:10B1A40008B1FBF71DFF8B490320FFF73DFC08B1F5
:10B1B400FBF716FF03A90020FFF722FD08B1FBF7F8
:10B1C4000FFF9DF80C40FDF7EBFF08B1FBF708FFFC
:10B1D40004F028FF08B1FBF703FF002303A90120B3
:10B1E400039304F0EBFF08B1FBF7FAFE03A805F0A4
:10B1F40097F808B1FBF7F4FE112377488DF808306F
:10B2040005F054FA744982B202A8FFF71DFD08B193
:10B21400FBF7E6FE0822002103A805F014FA4FF418
:10B2240048724FF4C873ADF80E2003A80022ADF89D
:10B234000C30ADF81020ADF81230FFF703FD08B163
:10B24400FBF7CEFE6548002102F04EF908B1FBF78A
:10B25400C7FEAC22002103A805F0F5F902238DF8FE
:10B264000C3040F20163ADF80E300023ADF81C3011
:10B274000893282240F6B833CDE9252340F2011380
:10B284004FF44861ADF8883044F25063CDE9271398
:10B294005348544B2C9303A900F04CFB08B1FBF723
:10B2A4009FFE4F48012100F042FB4F4801F002F994
:10B2B40008B1FBF795FE4D4B4D48029302A902F0ED
:10B2C40013FA08B1FBF78CFE4A4D1022002103A8A3
:10B2D40005F0B9F900211222284605F0B4F9464BCD
:10B2E40003931223CDE905354448454B049303A940
:10B2F40004F01AFD08B1FBF773FE1C22002103A819
:10B3040005F0A1F900234FF42032CDE903324FF4C4
:10B314007022059203228DF81820ADF81A3001220C
:10B32400089303A8374B8DF81C20099300F0C2FD45
:10B3340008B1FBF755FE02F0BBFF08B1FBF750FE66
:10B344000522002103A805F07EF931238DF80C3085
:10B3540007238DF80D3010238DF80E309DF80F3033
:10B3640023F0030343F003038DF80F309DF81030EE
:10B3740023F0030343F0030303A88DF8103003F014
:10B3840031F808B1FBF72CFE1F4803F013F808B19D
:10B39400FBF726FE1D4B1E481E49C01AC0080004B8
:10B3A40040F003000190FBF777FB022C0FD11A4900
:10B3B4000198FBF771FB03F06DF808B1FBF710FE81
:10B3C400FBF708FA0028FBD1FDF700FFF8E7FFF7C9
:10B3D400B7FEF5E709AD02007B130300AC32002091
:10B3E400E42F002085AC020075AF020059AC0200C6
:10B3F400C43200203C32002081AF020050320020D1
:10B4040083B102007FB1020061B10200B4070300FE
:10B41400DC0703008F130300BA1303006DDF7047CA
:10B4240079DF70477DDF704764DF70472DE9F04FA7
:10B4340085B000250E9CBDF83CB0B4F800A0019185
:10B44400074690461E46A9463A884A450DDC45B152
:10B454002388013BA3EB0A039BB2FF2B3AD806F8DF
:10B464000A30002005B0BDE8F08F7A6852F8290050
:10B47400039000220DF10B0103A8FFF7D5FF00286C
:10B48400F0D19DF80B20424521D12288002D14BF14
:10B494000020022002EB0801014459451ADC3DB9A1
:10B4A400013292B2019B2280B3542288013222805D
:10B4B40022880DF10B01324403A8FFF7B5FF0028E1
:10B4C400D0D121889DF80B200A442280012509F15E
:10B4D4000109B9E70C20C5E72DE9F341089FBDF840
:10B4E40024801546CDE90078022204461E46FFF763
:10B4F4009DFF50B93346102229462046CDE90878ED
:10B5040002B0BDE8F041FFF791BF02B0BDE8F081A1
:10B514002DE9F04F00231788138090F82D3085B063
:10B5240006460D46144653B3082F01D80C2027E1D4
:10B5340002A8FFF773FF002840F022812388082225
:10B54400EA54238801339BB21B222380EA542088C7
:10B55400013080B2208006220DF10901284405F053
:10B5640049F823889DF8082006339BB212F0FE02A6
:10B5740018BF01222380EA54238801332380B3783F
:10B58400FBB123880433BB42D0D802A8FFF748FF9D
:10B59400002840F0F58023880322EA5423880133ED
:10B5A4009BB219222380EA542388BDF80820013372
:10B5B4009BB2E9182380EA54120A4A7023880233A2
:10B5C4002380F2789AB12388D91CB942AED80221DB
:10B5D400E954238801339BB201212380E954238851
:10B5E4000B449BB22380EA5423880B442380726863
:10B5F400AAB12388D91CB94298D8022192F9002013
:10B60400E954238801339BB20A212380E954238817
:10B6140001339BB22380EA54238801332380338986
:10B62400002B40F0A180338A5BB1CDE900472B4663
:10B634000722032106F11000FFF74EFF002840F017
:10B644009F80338B5BB1CDE900472B461522142133
:10B6540006F11800FFF740FF002840F09180326A9D
:10B66400002A40F09080D6F82480B8F1000F30D042
:10B67400B8F804302188981C8A1C0244BA423FF668
:10B6840055AFFE283FF652AF03336B542388013382
:10B694009BB2FF222380EA54238801339BB2238088
:10B6A400B8F80020EA54E918120A4A7020880230D7
:10B6B40080B22080B8F804205AB1D8F808100029C4
:10B6C4006BD0284404F096FF2388B8F80420134470
:10B6D400238096F82C30002B40F098803078002896
:10B6E4004ED03388012B58D0228802F1020CBC457D
:10B6F4003FF61CAF012805D17378023313449F42EF
:10B70400FFF414AF023FBF1ABFB202A905EB0C004D
:10B71400ADF80870FFF786FE90BB3178BDF80830AD
:10B72400022900F0B98072789A4202D39F4280F0D5
:10B73400B180012940F0B280974293B2C0F0AE804C
:10B74400ADF808300821BDF80830FE2B3FF6EEAE08
:10B7540022880133AB542288013292B22280A95448
:10B764002288134423800BE0CDE900472B460622B0
:10B77400022106F10800FFF7AFFE00283FF453AFA3
:10B7840005B0BDE8F08FB4F800C00CF10603BB426D
:10B794003FF6CCAE1188052901D80720F0E76FF4F5
:10B7A400486E01EB0E039BB24FF27D3E7345F4D914
:10B7B4005388052BF1D96FF44860181880B270458E
:10B7C400EBD94FF6FF70814201D09942E5D80523A9
:10B7D40005F80C30238801339BB212212380E954ED
:10B7E400238801339BB223801188E954E818090A9D
:10B7F4004170238802339BB223805288EA54E918AB
:10B80400120A4A702388023323802CE7B36A002B80
:10B81400C3D04FF000084FF00C0A4FF0160BB16A7A
:10B824005FFA88F20AFB02F201EB0209B9F804306C
:10B83400981CFE283FF67AAE208803332B542388C5
:10B8440001339BB2238005F803B0238801339BB2F4
:10B8540023808A5AEA54E918120A4A70208802306E
:10B8640080B22080B9F804205AB1D9F80810002910
:10B8740093D0284404F0BEFE2388B9F8042013446E
:10B88400238096F82C2008F101085FFA88F39A4285
:10B89400C5D823E7092156E79F42FBD2ADF80870CB
:10B8A40050E770B5C0B14AB116880024B44203D33E
:10B8B40005196D789D4208D0A14201D800200BE003
:10B8C400055D01352C44A4B2F0E7A142F6D9A31CCE
:10B8D4001380005D013880B270BD13B51346002299
:10B8E400ADF806200DF106020446FFF7DAFF10B1A9
:10B8F400BDF80630E01802B010BD72DF704773DF88
:10B90400704738B5012204460D46B0F83812D0F815
:10B914003402FFF7E2FF00B1057004F13C0204F5C4
:10B924000D7104F15400BDE83840FFF7E6BF80F81C
:10B9340030107047F8B504460F4600296DD0002832
:10B944006BD091F87A301BB191F89830002B66D106
:10B954004FF0000C84F802C007F178060FCE251DC5
:10B964000FC50FCE0FC596E8070085E8070084F8D9
:10B9740030C0D7F8A4306363D7F8A830A3634FF678
:10B98400FF7504F50D73C4F84432A4F84852072235
:10B99400614604F24A2004F056FE23780BB984F879
:10B9A400545094F82430002B14BFEE231F2304F1C9
:10B9B4005501C4F83412A4F8383204F50E7238462E
:10B9C400FFF7A6FD40BB94F82430002B14BFEE23F0
:10B9D4001F2304F24311C4F83C12A4F8403204F5C6
:10B9E400107207F13C00FFF793FDA8B9A369A4F80E
:10B9F40048304FF480730125A4F850306369206403
:10BA0400014684F83C50636404F13C0204F15400A0
:10BA1400FFF773FF00B92570F8BD0E20FCE707207F
:10BA2400FAE7F8B5077804460D46002F00F00981BF
:10BA340000F24A26817007220021304604F003FEFA
:10BA4400E38813B1A378012B04D0E3794BB1A37835
:10BA5400022B06D1636BABB1012284F8512208207A
:10BA6400984704F24B2304F2512113F8012B12B925
:10BA74009942FAD117466B1E032B54D8DFE803F022
:10BA8400050B0F1284F85132EBE7A3791BB194F83C
:10BA9400243003B95FB9E3790BB1002F45D1237A80
:10BAA400002B44D1637A002B0CBF00250425636B63
:10BAB400A570002B3DD0033D012D3AD86279002AB0
:10BAC40037D094F85222A2BB84F85422012284F87D
